{
  "contractName": "AuctionPlatform",
  "abi": [
    {
      "inputs": [
        {
          "internalType": "uint256",
          "name": "_feePercent",
          "type": "uint256"
        }
      ],
      "stateMutability": "nonpayable",
      "type": "constructor"
    },
    {
      "anonymous": false,
      "inputs": [
        {
          "indexed": false,
          "internalType": "uint256",
          "name": "itemId",
          "type": "uint256"
        },
        {
          "indexed": true,
          "internalType": "address",
          "name": "nft",
          "type": "address"
        },
        {
          "indexed": false,
          "internalType": "uint256",
          "name": "tokenId",
          "type": "uint256"
        },
        {
          "indexed": true,
          "internalType": "address",
          "name": "highestBidder",
          "type": "address"
        },
        {
          "indexed": false,
          "internalType": "uint256",
          "name": "highestBid",
          "type": "uint256"
        }
      ],
      "name": "Bid",
      "type": "event"
    },
    {
      "anonymous": false,
      "inputs": [
        {
          "indexed": true,
          "internalType": "address",
          "name": "winner",
          "type": "address"
        },
        {
          "indexed": true,
          "internalType": "uint256",
          "name": "itemId",
          "type": "uint256"
        },
        {
          "indexed": false,
          "internalType": "uint256",
          "name": "amount",
          "type": "uint256"
        }
      ],
      "name": "End",
      "type": "event"
    },
    {
      "anonymous": false,
      "inputs": [
        {
          "indexed": false,
          "internalType": "uint256",
          "name": "itemId",
          "type": "uint256"
        },
        {
          "indexed": true,
          "internalType": "address",
          "name": "nft",
          "type": "address"
        },
        {
          "indexed": false,
          "internalType": "uint256",
          "name": "tokenId",
          "type": "uint256"
        },
        {
          "indexed": false,
          "internalType": "address",
          "name": "highestBidder",
          "type": "address"
        },
        {
          "indexed": false,
          "internalType": "uint256",
          "name": "endAt",
          "type": "uint256"
        },
        {
          "indexed": false,
          "internalType": "bool",
          "name": "ended",
          "type": "bool"
        }
      ],
      "name": "Offered",
      "type": "event"
    },
    {
      "anonymous": false,
      "inputs": [
        {
          "indexed": true,
          "internalType": "address",
          "name": "previousOwner",
          "type": "address"
        },
        {
          "indexed": true,
          "internalType": "address",
          "name": "newOwner",
          "type": "address"
        }
      ],
      "name": "OwnershipTransferred",
      "type": "event"
    },
    {
      "anonymous": false,
      "inputs": [
        {
          "indexed": true,
          "internalType": "address",
          "name": "feeAccount",
          "type": "address"
        },
        {
          "indexed": false,
          "internalType": "uint256",
          "name": "amount",
          "type": "uint256"
        }
      ],
      "name": "Withdraw",
      "type": "event"
    },
    {
      "anonymous": false,
      "inputs": [
        {
          "indexed": true,
          "internalType": "address",
          "name": "bidder",
          "type": "address"
        },
        {
          "indexed": true,
          "internalType": "uint256",
          "name": "itemId",
          "type": "uint256"
        },
        {
          "indexed": false,
          "internalType": "uint256",
          "name": "amount",
          "type": "uint256"
        }
      ],
      "name": "WithdrawBidding",
      "type": "event"
    },
    {
      "inputs": [
        {
          "internalType": "uint256",
          "name": "",
          "type": "uint256"
        },
        {
          "internalType": "address",
          "name": "",
          "type": "address"
        }
      ],
      "name": "bids",
      "outputs": [
        {
          "internalType": "uint256",
          "name": "",
          "type": "uint256"
        }
      ],
      "stateMutability": "view",
      "type": "function",
      "constant": true
    },
    {
      "inputs": [],
      "name": "feePercent",
      "outputs": [
        {
          "internalType": "uint256",
          "name": "",
          "type": "uint256"
        }
      ],
      "stateMutability": "view",
      "type": "function",
      "constant": true
    },
    {
      "inputs": [],
      "name": "itemCount",
      "outputs": [
        {
          "internalType": "uint256",
          "name": "",
          "type": "uint256"
        }
      ],
      "stateMutability": "view",
      "type": "function",
      "constant": true
    },
    {
      "inputs": [
        {
          "internalType": "uint256",
          "name": "",
          "type": "uint256"
        }
      ],
      "name": "items",
      "outputs": [
        {
          "internalType": "uint256",
          "name": "itemId",
          "type": "uint256"
        },
        {
          "internalType": "contract IERC721",
          "name": "nft",
          "type": "address"
        },
        {
          "internalType": "uint256",
          "name": "tokenId",
          "type": "uint256"
        },
        {
          "internalType": "address payable",
          "name": "seller",
          "type": "address"
        },
        {
          "internalType": "address",
          "name": "highestBidder",
          "type": "address"
        },
        {
          "internalType": "uint256",
          "name": "highestBid",
          "type": "uint256"
        },
        {
          "internalType": "uint256",
          "name": "endAt",
          "type": "uint256"
        },
        {
          "internalType": "bool",
          "name": "ended",
          "type": "bool"
        }
      ],
      "stateMutability": "view",
      "type": "function",
      "constant": true
    },
    {
      "inputs": [],
      "name": "owner",
      "outputs": [
        {
          "internalType": "address",
          "name": "",
          "type": "address"
        }
      ],
      "stateMutability": "view",
      "type": "function",
      "constant": true
    },
    {
      "inputs": [],
      "name": "renounceOwnership",
      "outputs": [],
      "stateMutability": "nonpayable",
      "type": "function"
    },
    {
      "inputs": [
        {
          "internalType": "address",
          "name": "newOwner",
          "type": "address"
        }
      ],
      "name": "transferOwnership",
      "outputs": [],
      "stateMutability": "nonpayable",
      "type": "function"
    },
    {
      "inputs": [
        {
          "internalType": "contract IERC721",
          "name": "_nft",
          "type": "address"
        },
        {
          "internalType": "uint256",
          "name": "_tokenId",
          "type": "uint256"
        },
        {
          "internalType": "uint256",
          "name": "_startPrice",
          "type": "uint256"
        }
      ],
      "name": "makeItem",
      "outputs": [],
      "stateMutability": "nonpayable",
      "type": "function"
    },
    {
      "inputs": [
        {
          "internalType": "uint256",
          "name": "_itemId",
          "type": "uint256"
        }
      ],
      "name": "bid",
      "outputs": [],
      "stateMutability": "payable",
      "type": "function",
      "payable": true
    },
    {
      "inputs": [
        {
          "internalType": "uint256",
          "name": "_itemId",
          "type": "uint256"
        }
      ],
      "name": "end",
      "outputs": [],
      "stateMutability": "nonpayable",
      "type": "function"
    },
    {
      "inputs": [
        {
          "internalType": "uint256",
          "name": "_itemId",
          "type": "uint256"
        }
      ],
      "name": "withdrawBidding",
      "outputs": [],
      "stateMutability": "nonpayable",
      "type": "function"
    },
    {
      "inputs": [],
      "name": "withdraw",
      "outputs": [],
      "stateMutability": "nonpayable",
      "type": "function"
    },
    {
      "inputs": [],
      "name": "getBalance",
      "outputs": [
        {
          "internalType": "uint256",
          "name": "",
          "type": "uint256"
        }
      ],
      "stateMutability": "view",
      "type": "function",
      "constant": true
    }
  ],
  "bytecode": "0x60a06040523480156200001157600080fd5b50604051620020e2380380620020e2833981810160405281019062000037919062000153565b60016000819055506200005f620000536200006e60201b60201c565b6200007660201b60201c565b806080818152505050620001a3565b600033905090565b6000600160009054906101000a900473ffffffffffffffffffffffffffffffffffffffff16905081600160006101000a81548173ffffffffffffffffffffffffffffffffffffffff021916908373ffffffffffffffffffffffffffffffffffffffff1602179055508173ffffffffffffffffffffffffffffffffffffffff168173ffffffffffffffffffffffffffffffffffffffff167f8be0079c531659141344cd1fd0a4f28419497f9722a3daafe3b4186f6b6457e060405160405180910390a35050565b6000815190506200014d8162000189565b92915050565b6000602082840312156200016657600080fd5b600062000176848285016200013c565b91505092915050565b6000819050919050565b62000194816200017f565b8114620001a057600080fd5b50565b608051611f1c620001c6600039600081816105040152610cba0152611f1c6000f3fe6080604052600436106100c25760003560e01c80636bfb0d011161007f5780638da5cb5b116100595780638da5cb5b14610221578063bfb231d21461024c578063f2fde38b14610290578063fa00afc7146102b9576100c2565b80636bfb0d01146101b4578063715018a6146101df5780637fd6f15c146101f6576100c2565b80630ad24528146100c757806312065fe0146100f057806317d9c3281461011b5780633ccfd60b146101445780633f1ffcec1461015b578063454a2ab314610198575b600080fd5b3480156100d357600080fd5b506100ee60048036038101906100e991906114d9565b6102e2565b005b3480156100fc57600080fd5b506101056106b3565b6040516101129190611902565b60405180910390f35b34801561012757600080fd5b50610142600480360381019061013d91906114d9565b6106bb565b005b34801561015057600080fd5b50610159610843565b005b34801561016757600080fd5b50610182600480360381019061017d9190611502565b610932565b60405161018f9190611902565b60405180910390f35b6101b260048036038101906101ad91906114d9565b610957565b005b3480156101c057600080fd5b506101c9610c9e565b6040516101d69190611902565b60405180910390f35b3480156101eb57600080fd5b506101f4610ca4565b005b34801561020257600080fd5b5061020b610cb8565b6040516102189190611902565b60405180910390f35b34801561022d57600080fd5b50610236610cdc565b6040516102439190611719565b60405180910390f35b34801561025857600080fd5b50610273600480360381019061026e91906114d9565b610d06565b60405161028798979695949392919061191d565b60405180910390f35b34801561029c57600080fd5b506102b760048036038101906102b29190611438565b610dbb565b005b3480156102c557600080fd5b506102e060048036038101906102db919061148a565b610e3f565b005b60006004600083815260200190815260200160002090508060060154421015610340576040517f08c379a0000000000000000000000000000000000000000000000000000000008152600401610337906118e2565b60405180910390fd5b8060070160009054906101000a900460ff1615610392576040517f08c379a0000000000000000000000000000000000000000000000000000000008152600401610389906118c2565b60405180910390fd5b60018160070160006101000a81548160ff021916908315150217905550600073ffffffffffffffffffffffffffffffffffffffff168160040160009054906101000a900473ffffffffffffffffffffffffffffffffffffffff1673ffffffffffffffffffffffffffffffffffffffff161461057c578060010160009054906101000a900473ffffffffffffffffffffffffffffffffffffffff1673ffffffffffffffffffffffffffffffffffffffff166342842e0e308360040160009054906101000a900473ffffffffffffffffffffffffffffffffffffffff1684600201546040518463ffffffff1660e01b81526004016104909392919061176b565b600060405180830381600087803b1580156104aa57600080fd5b505af11580156104be573d6000803e3d6000fd5b505050508060030160009054906101000a900473ffffffffffffffffffffffffffffffffffffffff1673ffffffffffffffffffffffffffffffffffffffff166108fc60647f000000000000000000000000000000000000000000000000000000000000000084600501546105329190611abd565b61053c9190611a8c565b836005015461054b9190611b17565b9081150290604051600060405180830381858888f19350505050158015610576573d6000803e3d6000fd5b50610638565b8060010160009054906101000a900473ffffffffffffffffffffffffffffffffffffffff1673ffffffffffffffffffffffffffffffffffffffff166342842e0e308360030160009054906101000a900473ffffffffffffffffffffffffffffffffffffffff1684600201546040518463ffffffff1660e01b815260040161060593929190611734565b600060405180830381600087803b15801561061f57600080fd5b505af1158015610633573d6000803e3d6000fd5b505050505b818160040160009054906101000a900473ffffffffffffffffffffffffffffffffffffffff1673ffffffffffffffffffffffffffffffffffffffff167ff58cfa488d8d9ddd26ddfc3dd52f23711c05cb37db31bda0b1b27d1bdfb56e5383600501546040516106a79190611902565b60405180910390a35050565b600047905090565b60006003600083815260200190815260200160002060003373ffffffffffffffffffffffffffffffffffffffff1673ffffffffffffffffffffffffffffffffffffffff16815260200190815260200160002054905060008111610753576040517f08c379a000000000000000000000000000000000000000000000000000000000815260040161074a90611802565b60405180910390fd5b60006003600084815260200190815260200160002060003373ffffffffffffffffffffffffffffffffffffffff1673ffffffffffffffffffffffffffffffffffffffff168152602001908152602001600020819055503373ffffffffffffffffffffffffffffffffffffffff166108fc829081150290604051600060405180830381858888f193505050501580156107ef573d6000803e3d6000fd5b50813373ffffffffffffffffffffffffffffffffffffffff167fef92f09550bfd6d92c1da20fe9347e6d83c163746ed5013f38b4fdcbb10bc86d836040516108379190611902565b60405180910390a35050565b61084b61123e565b60006108556106b3565b90506000811161089a576040517f08c379a000000000000000000000000000000000000000000000000000000000815260040161089190611802565b60405180910390fd5b3373ffffffffffffffffffffffffffffffffffffffff166108fc829081150290604051600060405180830381858888f193505050501580156108e0573d6000803e3d6000fd5b503373ffffffffffffffffffffffffffffffffffffffff167f884edad9ce6fa2440d8a54cc123490eb96d2768479d49ff9c7366125a9424364826040516109279190611902565b60405180910390a250565b6003602052816000526040600020602052806000526040600020600091509150505481565b61095f6112bc565b600060046000838152602001908152602001600020905060008211801561098857506002548211155b6109c7576040517f08c379a00000000000000000000000000000000000000000000000000000000081526004016109be90611822565b60405180910390fd5b80600601544210610a0d576040517f08c379a0000000000000000000000000000000000000000000000000000000008152600401610a04906118c2565b60405180910390fd5b8060070160009054906101000a900460ff1615610a5f576040517f08c379a0000000000000000000000000000000000000000000000000000000008152600401610a5690611862565b60405180910390fd5b80600501543411610aa5576040517f08c379a0000000000000000000000000000000000000000000000000000000008152600401610a9c906117e2565b60405180910390fd5b600073ffffffffffffffffffffffffffffffffffffffff168160040160009054906101000a900473ffffffffffffffffffffffffffffffffffffffff1673ffffffffffffffffffffffffffffffffffffffff1614610b8d5780600501546003600084815260200190815260200160002060008360040160009054906101000a900473ffffffffffffffffffffffffffffffffffffffff1673ffffffffffffffffffffffffffffffffffffffff1673ffffffffffffffffffffffffffffffffffffffff1681526020019081526020016000206000828254610b859190611a36565b925050819055505b338160040160006101000a81548173ffffffffffffffffffffffffffffffffffffffff021916908373ffffffffffffffffffffffffffffffffffffffff1602179055503481600501819055508060040160009054906101000a900473ffffffffffffffffffffffffffffffffffffffff1673ffffffffffffffffffffffffffffffffffffffff168160010160009054906101000a900473ffffffffffffffffffffffffffffffffffffffff1673ffffffffffffffffffffffffffffffffffffffff167fd59a97dc244724fedf2f0529c482bba8f0e372b9500e450f3966d721f9ccd03d8484600201548560050154604051610c8a939291906119ee565b60405180910390a350610c9b61130c565b50565b60025481565b610cac61123e565b610cb66000611316565b565b7f000000000000000000000000000000000000000000000000000000000000000081565b6000600160009054906101000a900473ffffffffffffffffffffffffffffffffffffffff16905090565b60046020528060005260406000206000915090508060000154908060010160009054906101000a900473ffffffffffffffffffffffffffffffffffffffff16908060020154908060030160009054906101000a900473ffffffffffffffffffffffffffffffffffffffff16908060040160009054906101000a900473ffffffffffffffffffffffffffffffffffffffff16908060050154908060060154908060070160009054906101000a900460ff16905088565b610dc361123e565b600073ffffffffffffffffffffffffffffffffffffffff168173ffffffffffffffffffffffffffffffffffffffff161415610e33576040517f08c379a0000000000000000000000000000000000000000000000000000000008152600401610e2a906117c2565b60405180910390fd5b610e3c81611316565b50565b610e476112bc565b3373ffffffffffffffffffffffffffffffffffffffff168373ffffffffffffffffffffffffffffffffffffffff16636352211e846040518263ffffffff1660e01b8152600401610e979190611902565b60206040518083038186803b158015610eaf57600080fd5b505afa158015610ec3573d6000803e3d6000fd5b505050506040513d601f19601f82011682018060405250810190610ee79190611461565b73ffffffffffffffffffffffffffffffffffffffff1614610f3d576040517f08c379a0000000000000000000000000000000000000000000000000000000008152600401610f3490611842565b60405180910390fd5b60008111610f80576040517f08c379a0000000000000000000000000000000000000000000000000000000008152600401610f77906117a2565b60405180910390fd5b60026000815480929190610f9390611c11565b91905055508273ffffffffffffffffffffffffffffffffffffffff166323b872dd3330856040518463ffffffff1660e01b8152600401610fd59392919061176b565b600060405180830381600087803b158015610fef57600080fd5b505af1158015611003573d6000803e3d6000fd5b5050505060405180610100016040528060025481526020018473ffffffffffffffffffffffffffffffffffffffff1681526020018381526020013373ffffffffffffffffffffffffffffffffffffffff168152602001600073ffffffffffffffffffffffffffffffffffffffff1681526020018281526020016101a44261108a9190611a36565b8152602001600015158152506004600060025481526020019081526020016000206000820151816000015560208201518160010160006101000a81548173ffffffffffffffffffffffffffffffffffffffff021916908373ffffffffffffffffffffffffffffffffffffffff1602179055506040820151816002015560608201518160030160006101000a81548173ffffffffffffffffffffffffffffffffffffffff021916908373ffffffffffffffffffffffffffffffffffffffff16021790555060808201518160040160006101000a81548173ffffffffffffffffffffffffffffffffffffffff021916908373ffffffffffffffffffffffffffffffffffffffff16021790555060a0820151816005015560c0820151816006015560e08201518160070160006101000a81548160ff0219169083151502179055509050508273ffffffffffffffffffffffffffffffffffffffff167f90aa47878c4e2725920a017bdb227b833ed56ec9226ff3f7af8ec7c1aaef8a1160025484336101a4426112169190611a36565b600060405161122995949392919061199b565b60405180910390a261123961130c565b505050565b6112466113dc565b73ffffffffffffffffffffffffffffffffffffffff16611264610cdc565b73ffffffffffffffffffffffffffffffffffffffff16146112ba576040517f08c379a00000000000000000000000000000000000000000000000000000000081526004016112b190611882565b60405180910390fd5b565b60026000541415611302576040517f08c379a00000000000000000000000000000000000000000000000000000000081526004016112f9906118a2565b60405180910390fd5b6002600081905550565b6001600081905550565b6000600160009054906101000a900473ffffffffffffffffffffffffffffffffffffffff16905081600160006101000a81548173ffffffffffffffffffffffffffffffffffffffff021916908373ffffffffffffffffffffffffffffffffffffffff1602179055508173ffffffffffffffffffffffffffffffffffffffff168173ffffffffffffffffffffffffffffffffffffffff167f8be0079c531659141344cd1fd0a4f28419497f9722a3daafe3b4186f6b6457e060405160405180910390a35050565b600033905090565b6000813590506113f381611ea1565b92915050565b60008151905061140881611ea1565b92915050565b60008135905061141d81611eb8565b92915050565b60008135905061143281611ecf565b92915050565b60006020828403121561144a57600080fd5b6000611458848285016113e4565b91505092915050565b60006020828403121561147357600080fd5b6000611481848285016113f9565b91505092915050565b60008060006060848603121561149f57600080fd5b60006114ad8682870161140e565b93505060206114be86828701611423565b92505060406114cf86828701611423565b9150509250925092565b6000602082840312156114eb57600080fd5b60006114f984828501611423565b91505092915050565b6000806040838503121561151557600080fd5b600061152385828601611423565b9250506020611534858286016113e4565b9150509250929050565b61154781611bb7565b82525050565b61155681611b5d565b82525050565b61156581611b4b565b82525050565b61157481611b6f565b82525050565b61158381611bc9565b82525050565b6000611596601f83611a25565b91506115a182611cb8565b602082019050919050565b60006115b9602683611a25565b91506115c482611ce1565b604082019050919050565b60006115dc600f83611a25565b91506115e782611d30565b602082019050919050565b60006115ff600883611a25565b915061160a82611d59565b602082019050919050565b6000611622601283611a25565b915061162d82611d82565b602082019050919050565b6000611645600e83611a25565b915061165082611dab565b602082019050919050565b6000611668600b83611a25565b915061167382611dd4565b602082019050919050565b600061168b602083611a25565b915061169682611dfd565b602082019050919050565b60006116ae601f83611a25565b91506116b982611e26565b602082019050919050565b60006116d1600583611a25565b91506116dc82611e4f565b602082019050919050565b60006116f4600983611a25565b91506116ff82611e78565b602082019050919050565b61171381611bad565b82525050565b600060208201905061172e600083018461155c565b92915050565b6000606082019050611749600083018661155c565b611756602083018561153e565b611763604083018461170a565b949350505050565b6000606082019050611780600083018661155c565b61178d602083018561155c565b61179a604083018461170a565b949350505050565b600060208201905081810360008301526117bb81611589565b9050919050565b600060208201905081810360008301526117db816115ac565b9050919050565b600060208201905081810360008301526117fb816115cf565b9050919050565b6000602082019050818103600083015261181b816115f2565b9050919050565b6000602082019050818103600083015261183b81611615565b9050919050565b6000602082019050818103600083015261185b81611638565b9050919050565b6000602082019050818103600083015261187b8161165b565b9050919050565b6000602082019050818103600083015261189b8161167e565b9050919050565b600060208201905081810360008301526118bb816116a1565b9050919050565b600060208201905081810360008301526118db816116c4565b9050919050565b600060208201905081810360008301526118fb816116e7565b9050919050565b6000602082019050611917600083018461170a565b92915050565b600061010082019050611933600083018b61170a565b611940602083018a61157a565b61194d604083018961170a565b61195a606083018861154d565b611967608083018761155c565b61197460a083018661170a565b61198160c083018561170a565b61198e60e083018461156b565b9998505050505050505050565b600060a0820190506119b0600083018861170a565b6119bd602083018761170a565b6119ca604083018661155c565b6119d7606083018561170a565b6119e4608083018461156b565b9695505050505050565b6000606082019050611a03600083018661170a565b611a10602083018561170a565b611a1d604083018461170a565b949350505050565b600082825260208201905092915050565b6000611a4182611bad565b9150611a4c83611bad565b9250827fffffffffffffffffffffffffffffffffffffffffffffffffffffffffffffffff03821115611a8157611a80611c5a565b5b828201905092915050565b6000611a9782611bad565b9150611aa283611bad565b925082611ab257611ab1611c89565b5b828204905092915050565b6000611ac882611bad565b9150611ad383611bad565b9250817fffffffffffffffffffffffffffffffffffffffffffffffffffffffffffffffff0483118215151615611b0c57611b0b611c5a565b5b828202905092915050565b6000611b2282611bad565b9150611b2d83611bad565b925082821015611b4057611b3f611c5a565b5b828203905092915050565b6000611b5682611b8d565b9050919050565b6000611b6882611b8d565b9050919050565b60008115159050919050565b6000611b8682611b4b565b9050919050565b600073ffffffffffffffffffffffffffffffffffffffff82169050919050565b6000819050919050565b6000611bc282611bed565b9050919050565b6000611bd482611bdb565b9050919050565b6000611be682611b8d565b9050919050565b6000611bf882611bff565b9050919050565b6000611c0a82611b8d565b9050919050565b6000611c1c82611bad565b91507fffffffffffffffffffffffffffffffffffffffffffffffffffffffffffffffff821415611c4f57611c4e611c5a565b5b600182019050919050565b7f4e487b7100000000000000000000000000000000000000000000000000000000600052601160045260246000fd5b7f4e487b7100000000000000000000000000000000000000000000000000000000600052601260045260246000fd5b7f5072696365206d7573742062652067726561746572207468616e207a65726f00600082015250565b7f4f776e61626c653a206e6577206f776e657220697320746865207a65726f206160008201527f6464726573730000000000000000000000000000000000000000000000000000602082015250565b7f76616c7565203c20686967686573740000000000000000000000000000000000600082015250565b7f4e6f206d6f6e6579000000000000000000000000000000000000000000000000600082015250565b7f6974656d20646f65736e27742065786973740000000000000000000000000000600082015250565b7f496e76616c6964206f776e65722e000000000000000000000000000000000000600082015250565b7f656e642061756374696f6e000000000000000000000000000000000000000000600082015250565b7f4f776e61626c653a2063616c6c6572206973206e6f7420746865206f776e6572600082015250565b7f5265656e7472616e637947756172643a207265656e7472616e742063616c6c00600082015250565b7f656e646564000000000000000000000000000000000000000000000000000000600082015250565b7f6e6f7420656e6465640000000000000000000000000000000000000000000000600082015250565b611eaa81611b4b565b8114611eb557600080fd5b50565b611ec181611b7b565b8114611ecc57600080fd5b50565b611ed881611bad565b8114611ee357600080fd5b5056fea2646970667358221220caac868cb63411e50db525ea7b2db485e1af133d45b90da1ed89fac9a1079a7764736f6c63430008040033",
  "immutableReferences": {
    "2892": [
      {
        "length": 32,
        "start": 1284
      },
      {
        "length": 32,
        "start": 3258
      }
    ]
  },
  "source": "// SPDX-License-Identifier: MIT\npragma solidity ^0.8.4;\n\nimport \"@openzeppelin/contracts/token/ERC721/IERC721.sol\";\nimport \"@openzeppelin/contracts/security/ReentrancyGuard.sol\";\nimport \"@openzeppelin/contracts/access/Ownable.sol\";\n\ncontract AuctionPlatform is ReentrancyGuard, Ownable {\n\n    // Variables\n    uint public immutable feePercent; // the fee percentage on sales \n    uint public itemCount; \n    mapping(uint => mapping(address => uint)) public bids;\n\n    struct Item {\n        uint itemId;\n        IERC721 nft;\n        uint tokenId;\n        address payable seller;\n        address highestBidder;\n        uint highestBid;\n        uint endAt;\n        bool ended;\n    }\n\n    // itemId -> Item\n    mapping(uint => Item) public items;\n\n    event Offered(\n        uint itemId,\n        address indexed nft,\n        uint tokenId,\n        address highestBidder,\n        uint endAt,\n        bool ended\n    );\n\n    event Bid(\n        uint itemId,\n        address indexed nft,\n        uint tokenId,\n        address indexed highestBidder,\n        uint highestBid\n    );\n\n    event End(address indexed winner, uint indexed itemId, uint amount);\n    event WithdrawBidding(address indexed bidder, uint indexed itemId, uint amount);\n    event Withdraw(address indexed feeAccount, uint amount);\n\n    constructor(uint _feePercent) {\n        feePercent = _feePercent;\n    }\n\n    // Make item to offer on the marketplace\n    function makeItem(IERC721 _nft, uint _tokenId, uint _startPrice) external nonReentrant {\n        require(_nft.ownerOf(_tokenId) == msg.sender,\"Invalid owner.\");\n        require(_startPrice > 0, \"Price must be greater than zero\");\n        // increment itemCount\n        itemCount ++;\n        // transfer nft\n        _nft.transferFrom(msg.sender, address(this), _tokenId);\n        // add new item to items mapping\n        items[itemCount] = Item (\n            itemCount,\n            _nft,\n            _tokenId,\n            payable(msg.sender),\n            address(0),\n            _startPrice,\n            block.timestamp + 7 minutes, \n            false\n        );\n\n        // emit Offered event\n        emit Offered(\n            itemCount,\n            address(_nft),\n            _tokenId,\n            msg.sender,\n            block.timestamp + 7 minutes,\n            false\n        );\n    }\n\n    function bid(uint _itemId) external payable nonReentrant {\n        Item storage item = items[_itemId];\n        require(_itemId > 0 && _itemId <= itemCount, \"item doesn't exist\");\n        require(block.timestamp < item.endAt, \"ended\");\n        require(!item.ended, \"end auction\");\n        require(msg.value > item.highestBid, \"value < highest\");\n\n        if (item.highestBidder != address(0)) {\n            bids[_itemId][item.highestBidder] += item.highestBid;\n        }\n\n        item.highestBidder = payable(msg.sender);\n        item.highestBid = msg.value;\n\n        // emit Bid event\n        emit Bid(\n            _itemId,\n            address(item.nft),\n            item.tokenId,\n            item.highestBidder,\n            item.highestBid\n        );\n    }\n\n    function end(uint _itemId) external {\n        Item storage item = items[_itemId];\n        require(block.timestamp >= item.endAt, \"not ended\");\n        require(!item.ended, \"ended\");\n\n        item.ended = true;\n        if (item.highestBidder != address(0)) {\n            item.nft.safeTransferFrom(address(this), item.highestBidder, item.tokenId);\n            item.seller.transfer(item.highestBid - item.highestBid*feePercent/100);\n        } else {\n            item.nft.safeTransferFrom(address(this), item.seller, item.tokenId);\n        }\n\n        emit End(item.highestBidder, _itemId, item.highestBid);\n    }\n\n    function withdrawBidding(uint _itemId) external {\n        uint bal = bids[_itemId][msg.sender];\n        require(bal > 0, \"No money\");\n        bids[_itemId][msg.sender] = 0;\n        payable(msg.sender).transfer(bal);\n        emit WithdrawBidding(msg.sender, _itemId,  bal);\n    }\n\n    function withdraw() external onlyOwner {\n        uint bal = getBalance();\n        require(bal > 0, \"No money\");\n        payable(msg.sender).transfer(bal);\n\n        emit Withdraw(msg.sender, bal);\n    }\n\n    function getBalance() public view returns(uint) {\n        return address(this).balance;\n    }\n}",
  "sourcePath": "/Users/xuanhai/www/blockchain/nft_marketplace/contracts/AuctionPlatform.sol",
  "compiler": {
    "name": "solc",
    "version": "0.8.4+commit.c7e474f2.Emscripten.clang"
  },
  "schemaVersion": "3.4.11",
  "updatedAt": "2023-05-21T14:09:00.026Z",
  "networkType": "ethereum",
  "devdoc": {
    "kind": "dev",
    "methods": {
      "owner()": {
        "details": "Returns the address of the current owner."
      },
      "renounceOwnership()": {
        "details": "Leaves the contract without owner. It will not be possible to call `onlyOwner` functions anymore. Can only be called by the current owner. NOTE: Renouncing ownership will leave the contract without an owner, thereby removing any functionality that is only available to the owner."
      },
      "transferOwnership(address)": {
        "details": "Transfers ownership of the contract to a new account (`newOwner`). Can only be called by the current owner."
      }
    },
    "version": 1
  },
  "userdoc": {
    "kind": "user",
    "methods": {},
    "version": 1
  }
}