{
  "contractName": "DynamicNft",
  "abi": [
    {
      "inputs": [
        {
          "internalType": "string",
          "name": "name_",
          "type": "string"
        },
        {
          "internalType": "string",
          "name": "symbol_",
          "type": "string"
        },
        {
          "internalType": "uint256",
          "name": "_interval",
          "type": "uint256"
        }
      ],
      "stateMutability": "nonpayable",
      "type": "constructor"
    },
    {
      "anonymous": false,
      "inputs": [
        {
          "indexed": true,
          "internalType": "address",
          "name": "owner",
          "type": "address"
        },
        {
          "indexed": true,
          "internalType": "address",
          "name": "approved",
          "type": "address"
        },
        {
          "indexed": true,
          "internalType": "uint256",
          "name": "tokenId",
          "type": "uint256"
        }
      ],
      "name": "Approval",
      "type": "event"
    },
    {
      "anonymous": false,
      "inputs": [
        {
          "indexed": true,
          "internalType": "address",
          "name": "owner",
          "type": "address"
        },
        {
          "indexed": true,
          "internalType": "address",
          "name": "operator",
          "type": "address"
        },
        {
          "indexed": false,
          "internalType": "bool",
          "name": "approved",
          "type": "bool"
        }
      ],
      "name": "ApprovalForAll",
      "type": "event"
    },
    {
      "anonymous": false,
      "inputs": [
        {
          "indexed": true,
          "internalType": "address",
          "name": "from",
          "type": "address"
        },
        {
          "indexed": true,
          "internalType": "address",
          "name": "to",
          "type": "address"
        },
        {
          "indexed": true,
          "internalType": "uint256",
          "name": "tokenId",
          "type": "uint256"
        }
      ],
      "name": "Transfer",
      "type": "event"
    },
    {
      "inputs": [],
      "name": "_tokenIdCounter",
      "outputs": [
        {
          "internalType": "uint256",
          "name": "_value",
          "type": "uint256"
        }
      ],
      "stateMutability": "view",
      "type": "function",
      "constant": true
    },
    {
      "inputs": [
        {
          "internalType": "address",
          "name": "to",
          "type": "address"
        },
        {
          "internalType": "uint256",
          "name": "tokenId",
          "type": "uint256"
        }
      ],
      "name": "approve",
      "outputs": [],
      "stateMutability": "nonpayable",
      "type": "function"
    },
    {
      "inputs": [
        {
          "internalType": "address",
          "name": "owner",
          "type": "address"
        }
      ],
      "name": "balanceOf",
      "outputs": [
        {
          "internalType": "uint256",
          "name": "",
          "type": "uint256"
        }
      ],
      "stateMutability": "view",
      "type": "function",
      "constant": true
    },
    {
      "inputs": [
        {
          "internalType": "uint256",
          "name": "tokenId",
          "type": "uint256"
        }
      ],
      "name": "getApproved",
      "outputs": [
        {
          "internalType": "address",
          "name": "",
          "type": "address"
        }
      ],
      "stateMutability": "view",
      "type": "function",
      "constant": true
    },
    {
      "inputs": [],
      "name": "interval",
      "outputs": [
        {
          "internalType": "uint256",
          "name": "",
          "type": "uint256"
        }
      ],
      "stateMutability": "view",
      "type": "function",
      "constant": true
    },
    {
      "inputs": [
        {
          "internalType": "address",
          "name": "owner",
          "type": "address"
        },
        {
          "internalType": "address",
          "name": "operator",
          "type": "address"
        }
      ],
      "name": "isApprovedForAll",
      "outputs": [
        {
          "internalType": "bool",
          "name": "",
          "type": "bool"
        }
      ],
      "stateMutability": "view",
      "type": "function",
      "constant": true
    },
    {
      "inputs": [
        {
          "internalType": "uint256",
          "name": "",
          "type": "uint256"
        }
      ],
      "name": "lastTimeStamp",
      "outputs": [
        {
          "internalType": "uint256",
          "name": "",
          "type": "uint256"
        }
      ],
      "stateMutability": "view",
      "type": "function",
      "constant": true
    },
    {
      "inputs": [],
      "name": "name",
      "outputs": [
        {
          "internalType": "string",
          "name": "",
          "type": "string"
        }
      ],
      "stateMutability": "view",
      "type": "function",
      "constant": true
    },
    {
      "inputs": [
        {
          "internalType": "uint256",
          "name": "",
          "type": "uint256"
        }
      ],
      "name": "nftStage",
      "outputs": [
        {
          "internalType": "uint256",
          "name": "",
          "type": "uint256"
        }
      ],
      "stateMutability": "view",
      "type": "function",
      "constant": true
    },
    {
      "inputs": [
        {
          "internalType": "uint256",
          "name": "tokenId",
          "type": "uint256"
        }
      ],
      "name": "ownerOf",
      "outputs": [
        {
          "internalType": "address",
          "name": "",
          "type": "address"
        }
      ],
      "stateMutability": "view",
      "type": "function",
      "constant": true
    },
    {
      "inputs": [
        {
          "internalType": "address",
          "name": "from",
          "type": "address"
        },
        {
          "internalType": "address",
          "name": "to",
          "type": "address"
        },
        {
          "internalType": "uint256",
          "name": "tokenId",
          "type": "uint256"
        }
      ],
      "name": "safeTransferFrom",
      "outputs": [],
      "stateMutability": "nonpayable",
      "type": "function"
    },
    {
      "inputs": [
        {
          "internalType": "address",
          "name": "from",
          "type": "address"
        },
        {
          "internalType": "address",
          "name": "to",
          "type": "address"
        },
        {
          "internalType": "uint256",
          "name": "tokenId",
          "type": "uint256"
        },
        {
          "internalType": "bytes",
          "name": "data",
          "type": "bytes"
        }
      ],
      "name": "safeTransferFrom",
      "outputs": [],
      "stateMutability": "nonpayable",
      "type": "function"
    },
    {
      "inputs": [
        {
          "internalType": "address",
          "name": "operator",
          "type": "address"
        },
        {
          "internalType": "bool",
          "name": "approved",
          "type": "bool"
        }
      ],
      "name": "setApprovalForAll",
      "outputs": [],
      "stateMutability": "nonpayable",
      "type": "function"
    },
    {
      "inputs": [
        {
          "internalType": "bytes4",
          "name": "interfaceId",
          "type": "bytes4"
        }
      ],
      "name": "supportsInterface",
      "outputs": [
        {
          "internalType": "bool",
          "name": "",
          "type": "bool"
        }
      ],
      "stateMutability": "view",
      "type": "function",
      "constant": true
    },
    {
      "inputs": [],
      "name": "symbol",
      "outputs": [
        {
          "internalType": "string",
          "name": "",
          "type": "string"
        }
      ],
      "stateMutability": "view",
      "type": "function",
      "constant": true
    },
    {
      "inputs": [
        {
          "internalType": "uint256",
          "name": "tokenId",
          "type": "uint256"
        }
      ],
      "name": "tokenURI",
      "outputs": [
        {
          "internalType": "string",
          "name": "",
          "type": "string"
        }
      ],
      "stateMutability": "view",
      "type": "function",
      "constant": true
    },
    {
      "inputs": [
        {
          "internalType": "address",
          "name": "from",
          "type": "address"
        },
        {
          "internalType": "address",
          "name": "to",
          "type": "address"
        },
        {
          "internalType": "uint256",
          "name": "tokenId",
          "type": "uint256"
        }
      ],
      "name": "transferFrom",
      "outputs": [],
      "stateMutability": "nonpayable",
      "type": "function"
    },
    {
      "inputs": [],
      "name": "mint",
      "outputs": [
        {
          "internalType": "uint256",
          "name": "",
          "type": "uint256"
        }
      ],
      "stateMutability": "nonpayable",
      "type": "function"
    },
    {
      "inputs": [
        {
          "internalType": "uint64",
          "name": "_tokenId",
          "type": "uint64"
        }
      ],
      "name": "upgradeNft",
      "outputs": [],
      "stateMutability": "nonpayable",
      "type": "function"
    },
    {
      "inputs": [
        {
          "internalType": "uint64",
          "name": "_tokenId",
          "type": "uint64"
        }
      ],
      "name": "getRemainTimeForUpgrade",
      "outputs": [
        {
          "internalType": "uint256",
          "name": "",
          "type": "uint256"
        }
      ],
      "stateMutability": "view",
      "type": "function",
      "constant": true
    }
  ],
  "bytecode": "0x60a060405260405180606001604052806040518060a00160405280606681526020016200355d6066913981526020016040518060a0016040528060668152602001620035c36066913981526020016040518060a0016040528060668152602001620036296066913981525060089060036200007c929190620000f7565b503480156200008a57600080fd5b506040516200368f3803806200368f8339818101604052810190620000b0919062000305565b82828160009080519060200190620000ca9291906200015e565b508060019080519060200190620000e39291906200015e565b505050806080818152505050505062000521565b8280548282559060005260206000209081019282156200014b579160200282015b828111156200014a578251829080519060200190620001399291906200015e565b509160200191906001019062000118565b5b5090506200015a9190620001ef565b5090565b8280546200016c906200042c565b90600052602060002090601f016020900481019282620001905760008555620001dc565b82601f10620001ab57805160ff1916838001178555620001dc565b82800160010185558215620001dc579182015b82811115620001db578251825591602001919060010190620001be565b5b509050620001eb919062000217565b5090565b5b8082111562000213576000818162000209919062000236565b50600101620001f0565b5090565b5b808211156200023257600081600090555060010162000218565b5090565b50805462000244906200042c565b6000825580601f1062000258575062000279565b601f01602090049060005260206000209081019062000278919062000217565b5b50565b6000620002936200028d84620003b6565b6200038d565b905082815260208101848484011115620002ac57600080fd5b620002b9848285620003f6565b509392505050565b600082601f830112620002d357600080fd5b8151620002e58482602086016200027c565b91505092915050565b600081519050620002ff8162000507565b92915050565b6000806000606084860312156200031b57600080fd5b600084015167ffffffffffffffff8111156200033657600080fd5b6200034486828701620002c1565b935050602084015167ffffffffffffffff8111156200036257600080fd5b6200037086828701620002c1565b92505060406200038386828701620002ee565b9150509250925092565b600062000399620003ac565b9050620003a7828262000462565b919050565b6000604051905090565b600067ffffffffffffffff821115620003d457620003d3620004c7565b5b620003df82620004f6565b9050602081019050919050565b6000819050919050565b60005b8381101562000416578082015181840152602081019050620003f9565b8381111562000426576000848401525b50505050565b600060028204905060018216806200044557607f821691505b602082108114156200045c576200045b62000498565b5b50919050565b6200046d82620004f6565b810181811067ffffffffffffffff821117156200048f576200048e620004c7565b5b80604052505050565b7f4e487b7100000000000000000000000000000000000000000000000000000000600052602260045260246000fd5b7f4e487b7100000000000000000000000000000000000000000000000000000000600052604160045260246000fd5b6000601f19601f8301169050919050565b6200051281620003ec565b81146200051e57600080fd5b50565b60805161300b620005526000396000818161056301528181610c8101528181610caa0152610cf4015261300b6000f3fe608060405234801561001057600080fd5b506004361061012c5760003560e01c80636c1d4396116100ad57806395d89b411161007157806395d89b4114610369578063a22cb46514610387578063b88d4fde146103a3578063c87b56dd146103bf578063e985e9c5146103ef5761012c565b80636c1d43961461029d57806370a08231146102cd578063826d996e146102fd57806384c4bd4b1461032d578063947a36fb1461034b5761012c565b8063095ea7b3116100f4578063095ea7b3146101fb5780631249c58b1461021757806323b872dd1461023557806342842e0e146102515780636352211e1461026d5761012c565b806301ffc9a71461013157806302e4e2881461016157806306fdde031461017d578063081812fc1461019b5780630866cd8b146101cb575b600080fd5b61014b60048036038101906101469190612312565b61041f565b60405161015891906126fb565b60405180910390f35b61017b6004803603810190610176919061238d565b610501565b005b610185610740565b6040516101929190612716565b60405180910390f35b6101b560048036038101906101b09190612364565b6107d2565b6040516101c29190612694565b60405180910390f35b6101e560048036038101906101e09190612364565b610818565b6040516101f291906128f8565b60405180910390f35b610215600480360381019061021091906122d6565b610830565b005b61021f610948565b60405161022c91906128f8565b60405180910390f35b61024f600480360381019061024a91906121d0565b610a7a565b005b61026b600480360381019061026691906121d0565b610ada565b005b61028760048036038101906102829190612364565b610afa565b6040516102949190612694565b60405180910390f35b6102b760048036038101906102b29190612364565b610b81565b6040516102c491906128f8565b60405180910390f35b6102e760048036038101906102e2919061216b565b610b99565b6040516102f491906128f8565b60405180910390f35b6103176004803603810190610312919061238d565b610c51565b60405161032491906128f8565b60405180910390f35b610335610ce6565b60405161034291906128f8565b60405180910390f35b610353610cf2565b60405161036091906128f8565b60405180910390f35b610371610d16565b60405161037e9190612716565b60405180910390f35b6103a1600480360381019061039c919061229a565b610da8565b005b6103bd60048036038101906103b8919061221f565b610dbe565b005b6103d960048036038101906103d49190612364565b610e20565b6040516103e69190612716565b60405180910390f35b61040960048036038101906104049190612194565b610f33565b60405161041691906126fb565b60405180910390f35b60007f80ac58cd000000000000000000000000000000000000000000000000000000007bffffffffffffffffffffffffffffffffffffffffffffffffffffffff1916827bffffffffffffffffffffffffffffffffffffffffffffffffffffffff191614806104ea57507f5b5e139f000000000000000000000000000000000000000000000000000000007bffffffffffffffffffffffffffffffffffffffffffffffffffffffff1916827bffffffffffffffffffffffffffffffffffffffffffffffffffffffff1916145b806104fa57506104f982610fc7565b5b9050919050565b6002600960008367ffffffffffffffff1681526020019081526020016000205410610561576040517f08c379a000000000000000000000000000000000000000000000000000000000815260040161055890612858565b60405180910390fd5b7f0000000000000000000000000000000000000000000000000000000000000000600a60008367ffffffffffffffff16815260200190815260200160002054426105ab91906129ac565b116105eb576040517f08c379a00000000000000000000000000000000000000000000000000000000081526004016105e290612738565b60405180910390fd5b600960008267ffffffffffffffff168152602001908152602001600020600081548092919061061990612b0d565b919050555042600a60008367ffffffffffffffff1681526020019081526020016000208190555061073d8167ffffffffffffffff166008600960008567ffffffffffffffff16815260200190815260200160002054815481106106a5577f4e487b7100000000000000000000000000000000000000000000000000000000600052603260045260246000fd5b9060005260206000200180546106ba90612aaa565b80601f01602080910402602001604051908101604052809291908181526020018280546106e690612aaa565b80156107335780601f1061070857610100808354040283529160200191610733565b820191906000526020600020905b81548152906001019060200180831161071657829003601f168201915b5050505050611031565b50565b60606000805461074f90612aaa565b80601f016020809104026020016040519081016040528092919081815260200182805461077b90612aaa565b80156107c85780601f1061079d576101008083540402835291602001916107c8565b820191906000526020600020905b8154815290600101906020018083116107ab57829003601f168201915b5050505050905090565b60006107dd826110a5565b6004600083815260200190815260200160002060009054906101000a900473ffffffffffffffffffffffffffffffffffffffff169050919050565b600a6020528060005260406000206000915090505481565b600061083b82610afa565b90508073ffffffffffffffffffffffffffffffffffffffff168373ffffffffffffffffffffffffffffffffffffffff1614156108ac576040517f08c379a00000000000000000000000000000000000000000000000000000000081526004016108a3906128b8565b60405180910390fd5b8073ffffffffffffffffffffffffffffffffffffffff166108cb6110f0565b73ffffffffffffffffffffffffffffffffffffffff1614806108fa57506108f9816108f46110f0565b610f33565b5b610939576040517f08c379a0000000000000000000000000000000000000000000000000000000008152600401610930906128d8565b60405180910390fd5b61094383836110f8565b505050565b60008061095560076111b1565b905061096160076111bf565b61096b33826111d5565b610a428160086000815481106109aa577f4e487b7100000000000000000000000000000000000000000000000000000000600052603260045260246000fd5b9060005260206000200180546109bf90612aaa565b80601f01602080910402602001604051908101604052809291908181526020018280546109eb90612aaa565b8015610a385780601f10610a0d57610100808354040283529160200191610a38565b820191906000526020600020905b815481529060010190602001808311610a1b57829003601f168201915b5050505050611031565b6000600960008381526020019081526020016000208190555042600a6000838152602001908152602001600020819055508091505090565b610a8b610a856110f0565b826111f3565b610aca576040517f08c379a0000000000000000000000000000000000000000000000000000000008152600401610ac190612758565b60405180910390fd5b610ad5838383611288565b505050565b610af583838360405180602001604052806000815250610dbe565b505050565b600080610b0683611582565b9050600073ffffffffffffffffffffffffffffffffffffffff168173ffffffffffffffffffffffffffffffffffffffff161415610b78576040517f08c379a0000000000000000000000000000000000000000000000000000000008152600401610b6f90612898565b60405180910390fd5b80915050919050565b60096020528060005260406000206000915090505481565b60008073ffffffffffffffffffffffffffffffffffffffff168273ffffffffffffffffffffffffffffffffffffffff161415610c0a576040517f08c379a0000000000000000000000000000000000000000000000000000000008152600401610c0190612818565b60405180910390fd5b600360008373ffffffffffffffffffffffffffffffffffffffff1673ffffffffffffffffffffffffffffffffffffffff168152602001908152602001600020549050919050565b600080600a60008467ffffffffffffffff1681526020019081526020016000205442610c7d91906129ac565b90507f0000000000000000000000000000000000000000000000000000000000000000811015610cdb57807f0000000000000000000000000000000000000000000000000000000000000000610cd391906129ac565b915050610ce1565b60009150505b919050565b60078060000154905081565b7f000000000000000000000000000000000000000000000000000000000000000081565b606060018054610d2590612aaa565b80601f0160208091040260200160405190810160405280929190818152602001828054610d5190612aaa565b8015610d9e5780601f10610d7357610100808354040283529160200191610d9e565b820191906000526020600020905b815481529060010190602001808311610d8157829003601f168201915b5050505050905090565b610dba610db36110f0565b83836115bf565b5050565b610dcf610dc96110f0565b836111f3565b610e0e576040517f08c379a0000000000000000000000000000000000000000000000000000000008152600401610e0590612758565b60405180910390fd5b610e1a8484848461172c565b50505050565b6060610e2b826110a5565b6000600660008481526020019081526020016000208054610e4b90612aaa565b80601f0160208091040260200160405190810160405280929190818152602001828054610e7790612aaa565b8015610ec45780601f10610e9957610100808354040283529160200191610ec4565b820191906000526020600020905b815481529060010190602001808311610ea757829003601f168201915b505050505090506000610ed5611788565b9050600081511415610eeb578192505050610f2e565b600082511115610f20578082604051602001610f08929190612670565b60405160208183030381529060405292505050610f2e565b610f298461179f565b925050505b919050565b6000600560008473ffffffffffffffffffffffffffffffffffffffff1673ffffffffffffffffffffffffffffffffffffffff16815260200190815260200160002060008373ffffffffffffffffffffffffffffffffffffffff1673ffffffffffffffffffffffffffffffffffffffff16815260200190815260200160002060009054906101000a900460ff16905092915050565b60007f01ffc9a7000000000000000000000000000000000000000000000000000000007bffffffffffffffffffffffffffffffffffffffffffffffffffffffff1916827bffffffffffffffffffffffffffffffffffffffffffffffffffffffff1916149050919050565b61103a82611807565b611079576040517f08c379a000000000000000000000000000000000000000000000000000000000815260040161107090612838565b60405180910390fd5b806006600084815260200190815260200160002090805190602001906110a0929190611fe2565b505050565b6110ae81611807565b6110ed576040517f08c379a00000000000000000000000000000000000000000000000000000000081526004016110e490612898565b60405180910390fd5b50565b600033905090565b816004600083815260200190815260200160002060006101000a81548173ffffffffffffffffffffffffffffffffffffffff021916908373ffffffffffffffffffffffffffffffffffffffff160217905550808273ffffffffffffffffffffffffffffffffffffffff1661116b83610afa565b73ffffffffffffffffffffffffffffffffffffffff167f8c5be1e5ebec7d5bd14f71427d1e84f3dd0314c0f7b2291e5b200ac8c7c3b92560405160405180910390a45050565b600081600001549050919050565b6001816000016000828254019250508190555050565b6111ef828260405180602001604052806000815250611848565b5050565b6000806111ff83610afa565b90508073ffffffffffffffffffffffffffffffffffffffff168473ffffffffffffffffffffffffffffffffffffffff16148061124157506112408185610f33565b5b8061127f57508373ffffffffffffffffffffffffffffffffffffffff16611267846107d2565b73ffffffffffffffffffffffffffffffffffffffff16145b91505092915050565b8273ffffffffffffffffffffffffffffffffffffffff166112a882610afa565b73ffffffffffffffffffffffffffffffffffffffff16146112fe576040517f08c379a00000000000000000000000000000000000000000000000000000000081526004016112f590612798565b60405180910390fd5b600073ffffffffffffffffffffffffffffffffffffffff168273ffffffffffffffffffffffffffffffffffffffff16141561136e576040517f08c379a0000000000000000000000000000000000000000000000000000000008152600401611365906127d8565b60405180910390fd5b61137b83838360016118a3565b8273ffffffffffffffffffffffffffffffffffffffff1661139b82610afa565b73ffffffffffffffffffffffffffffffffffffffff16146113f1576040517f08c379a00000000000000000000000000000000000000000000000000000000081526004016113e890612798565b60405180910390fd5b6004600082815260200190815260200160002060006101000a81549073ffffffffffffffffffffffffffffffffffffffff02191690556001600360008573ffffffffffffffffffffffffffffffffffffffff1673ffffffffffffffffffffffffffffffffffffffff168152602001908152602001600020600082825403925050819055506001600360008473ffffffffffffffffffffffffffffffffffffffff1673ffffffffffffffffffffffffffffffffffffffff16815260200190815260200160002060008282540192505081905550816002600083815260200190815260200160002060006101000a81548173ffffffffffffffffffffffffffffffffffffffff021916908373ffffffffffffffffffffffffffffffffffffffff160217905550808273ffffffffffffffffffffffffffffffffffffffff168473ffffffffffffffffffffffffffffffffffffffff167fddf252ad1be2c89b69c2b068fc378daa952ba7f163c4a11628f55a4df523b3ef60405160405180910390a461157d83838360016118a9565b505050565b60006002600083815260200190815260200160002060009054906101000a900473ffffffffffffffffffffffffffffffffffffffff169050919050565b8173ffffffffffffffffffffffffffffffffffffffff168373ffffffffffffffffffffffffffffffffffffffff16141561162e576040517f08c379a0000000000000000000000000000000000000000000000000000000008152600401611625906127f8565b60405180910390fd5b80600560008573ffffffffffffffffffffffffffffffffffffffff1673ffffffffffffffffffffffffffffffffffffffff16815260200190815260200160002060008473ffffffffffffffffffffffffffffffffffffffff1673ffffffffffffffffffffffffffffffffffffffff16815260200190815260200160002060006101000a81548160ff0219169083151502179055508173ffffffffffffffffffffffffffffffffffffffff168373ffffffffffffffffffffffffffffffffffffffff167f17307eab39ab6107e8899845ad3d59bd9653f200f220920489ca2b5937696c318360405161171f91906126fb565b60405180910390a3505050565b611737848484611288565b611743848484846118af565b611782576040517f08c379a000000000000000000000000000000000000000000000000000000000815260040161177990612778565b60405180910390fd5b50505050565b606060405180602001604052806000815250905090565b60606117aa826110a5565b60006117b4611788565b905060008151116117d457604051806020016040528060008152506117ff565b806117de84611a46565b6040516020016117ef929190612670565b6040516020818303038152906040525b915050919050565b60008073ffffffffffffffffffffffffffffffffffffffff1661182983611582565b73ffffffffffffffffffffffffffffffffffffffff1614159050919050565b6118528383611b6a565b61185f60008484846118af565b61189e576040517f08c379a000000000000000000000000000000000000000000000000000000000815260040161189590612778565b60405180910390fd5b505050565b50505050565b50505050565b60006118d08473ffffffffffffffffffffffffffffffffffffffff16611d88565b15611a39578373ffffffffffffffffffffffffffffffffffffffff1663150b7a026118f96110f0565b8786866040518563ffffffff1660e01b815260040161191b94939291906126af565b602060405180830381600087803b15801561193557600080fd5b505af192505050801561196657506040513d601f19601f82011682018060405250810190611963919061233b565b60015b6119e9573d8060008114611996576040519150601f19603f3d011682016040523d82523d6000602084013e61199b565b606091505b506000815114156119e1576040517f08c379a00000000000000000000000000000000000000000000000000000000081526004016119d890612778565b60405180910390fd5b805181602001fd5b63150b7a0260e01b7bffffffffffffffffffffffffffffffffffffffffffffffffffffffff1916817bffffffffffffffffffffffffffffffffffffffffffffffffffffffff191614915050611a3e565b600190505b949350505050565b606060006001611a5584611dab565b01905060008167ffffffffffffffff811115611a9a577f4e487b7100000000000000000000000000000000000000000000000000000000600052604160045260246000fd5b6040519080825280601f01601f191660200182016040528015611acc5781602001600182028036833780820191505090505b509050600082602001820190505b600115611b5f578080600190039150507f3031323334353637383961626364656600000000000000000000000000000000600a86061a8153600a8581611b49577f4e487b7100000000000000000000000000000000000000000000000000000000600052601260045260246000fd5b0494506000851415611b5a57611b5f565b611ada565b819350505050919050565b600073ffffffffffffffffffffffffffffffffffffffff168273ffffffffffffffffffffffffffffffffffffffff161415611bda576040517f08c379a0000000000000000000000000000000000000000000000000000000008152600401611bd190612878565b60405180910390fd5b611be381611807565b15611c23576040517f08c379a0000000000000000000000000000000000000000000000000000000008152600401611c1a906127b8565b60405180910390fd5b611c316000838360016118a3565b611c3a81611807565b15611c7a576040517f08c379a0000000000000000000000000000000000000000000000000000000008152600401611c71906127b8565b60405180910390fd5b6001600360008473ffffffffffffffffffffffffffffffffffffffff1673ffffffffffffffffffffffffffffffffffffffff16815260200190815260200160002060008282540192505081905550816002600083815260200190815260200160002060006101000a81548173ffffffffffffffffffffffffffffffffffffffff021916908373ffffffffffffffffffffffffffffffffffffffff160217905550808273ffffffffffffffffffffffffffffffffffffffff16600073ffffffffffffffffffffffffffffffffffffffff167fddf252ad1be2c89b69c2b068fc378daa952ba7f163c4a11628f55a4df523b3ef60405160405180910390a4611d846000838360016118a9565b5050565b6000808273ffffffffffffffffffffffffffffffffffffffff163b119050919050565b600080600090507a184f03e93ff9f4daa797ed6e38ed64bf6a1f0100000000000000008310611e2f577a184f03e93ff9f4daa797ed6e38ed64bf6a1f0100000000000000008381611e25577f4e487b7100000000000000000000000000000000000000000000000000000000600052601260045260246000fd5b0492506040810190505b6d04ee2d6d415b85acef81000000008310611e92576d04ee2d6d415b85acef81000000008381611e88577f4e487b7100000000000000000000000000000000000000000000000000000000600052601260045260246000fd5b0492506020810190505b662386f26fc100008310611ee757662386f26fc100008381611edd577f4e487b7100000000000000000000000000000000000000000000000000000000600052601260045260246000fd5b0492506010810190505b6305f5e1008310611f36576305f5e1008381611f2c577f4e487b7100000000000000000000000000000000000000000000000000000000600052601260045260246000fd5b0492506008810190505b6127108310611f81576127108381611f77577f4e487b7100000000000000000000000000000000000000000000000000000000600052601260045260246000fd5b0492506004810190505b60648310611fca5760648381611fc0577f4e487b7100000000000000000000000000000000000000000000000000000000600052601260045260246000fd5b0492506002810190505b600a8310611fd9576001810190505b80915050919050565b828054611fee90612aaa565b90600052602060002090601f0160209004810192826120105760008555612057565b82601f1061202957805160ff1916838001178555612057565b82800160010185558215612057579182015b8281111561205657825182559160200191906001019061203b565b5b5090506120649190612068565b5090565b5b80821115612081576000816000905550600101612069565b5090565b600061209861209384612938565b612913565b9050828152602081018484840111156120b057600080fd5b6120bb848285612a68565b509392505050565b6000813590506120d281612f62565b92915050565b6000813590506120e781612f79565b92915050565b6000813590506120fc81612f90565b92915050565b60008151905061211181612f90565b92915050565b600082601f83011261212857600080fd5b8135612138848260208601612085565b91505092915050565b60008135905061215081612fa7565b92915050565b60008135905061216581612fbe565b92915050565b60006020828403121561217d57600080fd5b600061218b848285016120c3565b91505092915050565b600080604083850312156121a757600080fd5b60006121b5858286016120c3565b92505060206121c6858286016120c3565b9150509250929050565b6000806000606084860312156121e557600080fd5b60006121f3868287016120c3565b9350506020612204868287016120c3565b925050604061221586828701612141565b9150509250925092565b6000806000806080858703121561223557600080fd5b6000612243878288016120c3565b9450506020612254878288016120c3565b935050604061226587828801612141565b925050606085013567ffffffffffffffff81111561228257600080fd5b61228e87828801612117565b91505092959194509250565b600080604083850312156122ad57600080fd5b60006122bb858286016120c3565b92505060206122cc858286016120d8565b9150509250929050565b600080604083850312156122e957600080fd5b60006122f7858286016120c3565b925050602061230885828601612141565b9150509250929050565b60006020828403121561232457600080fd5b6000612332848285016120ed565b91505092915050565b60006020828403121561234d57600080fd5b600061235b84828501612102565b91505092915050565b60006020828403121561237657600080fd5b600061238484828501612141565b91505092915050565b60006020828403121561239f57600080fd5b60006123ad84828501612156565b91505092915050565b6123bf816129e0565b82525050565b6123ce816129f2565b82525050565b60006123df82612969565b6123e9818561297f565b93506123f9818560208601612a77565b61240281612be3565b840191505092915050565b600061241882612974565b6124228185612990565b9350612432818560208601612a77565b61243b81612be3565b840191505092915050565b600061245182612974565b61245b81856129a1565b935061246b818560208601612a77565b80840191505092915050565b6000612484601d83612990565b915061248f82612bf4565b602082019050919050565b60006124a7602d83612990565b91506124b282612c1d565b604082019050919050565b60006124ca603283612990565b91506124d582612c6c565b604082019050919050565b60006124ed602583612990565b91506124f882612cbb565b604082019050919050565b6000612510601c83612990565b915061251b82612d0a565b602082019050919050565b6000612533602483612990565b915061253e82612d33565b604082019050919050565b6000612556601983612990565b915061256182612d82565b602082019050919050565b6000612579602983612990565b915061258482612dab565b604082019050919050565b600061259c602e83612990565b91506125a782612dfa565b604082019050919050565b60006125bf601283612990565b91506125ca82612e49565b602082019050919050565b60006125e2602083612990565b91506125ed82612e72565b602082019050919050565b6000612605601883612990565b915061261082612e9b565b602082019050919050565b6000612628602183612990565b915061263382612ec4565b604082019050919050565b600061264b603d83612990565b915061265682612f13565b604082019050919050565b61266a81612a4a565b82525050565b600061267c8285612446565b91506126888284612446565b91508190509392505050565b60006020820190506126a960008301846123b6565b92915050565b60006080820190506126c460008301876123b6565b6126d160208301866123b6565b6126de6040830185612661565b81810360608301526126f081846123d4565b905095945050505050565b600060208201905061271060008301846123c5565b92915050565b60006020820190508181036000830152612730818461240d565b905092915050565b6000602082019050818103600083015261275181612477565b9050919050565b600060208201905081810360008301526127718161249a565b9050919050565b60006020820190508181036000830152612791816124bd565b9050919050565b600060208201905081810360008301526127b1816124e0565b9050919050565b600060208201905081810360008301526127d181612503565b9050919050565b600060208201905081810360008301526127f181612526565b9050919050565b6000602082019050818103600083015261281181612549565b9050919050565b600060208201905081810360008301526128318161256c565b9050919050565b600060208201905081810360008301526128518161258f565b9050919050565b60006020820190508181036000830152612871816125b2565b9050919050565b60006020820190508181036000830152612891816125d5565b9050919050565b600060208201905081810360008301526128b1816125f8565b9050919050565b600060208201905081810360008301526128d18161261b565b9050919050565b600060208201905081810360008301526128f18161263e565b9050919050565b600060208201905061290d6000830184612661565b92915050565b600061291d61292e565b90506129298282612adc565b919050565b6000604051905090565b600067ffffffffffffffff82111561295357612952612bb4565b5b61295c82612be3565b9050602081019050919050565b600081519050919050565b600081519050919050565b600082825260208201905092915050565b600082825260208201905092915050565b600081905092915050565b60006129b782612a4a565b91506129c283612a4a565b9250828210156129d5576129d4612b56565b5b828203905092915050565b60006129eb82612a2a565b9050919050565b60008115159050919050565b60007fffffffff0000000000000000000000000000000000000000000000000000000082169050919050565b600073ffffffffffffffffffffffffffffffffffffffff82169050919050565b6000819050919050565b600067ffffffffffffffff82169050919050565b82818337600083830152505050565b60005b83811015612a95578082015181840152602081019050612a7a565b83811115612aa4576000848401525b50505050565b60006002820490506001821680612ac257607f821691505b60208210811415612ad657612ad5612b85565b5b50919050565b612ae582612be3565b810181811067ffffffffffffffff82111715612b0457612b03612bb4565b5b80604052505050565b6000612b1882612a4a565b91507fffffffffffffffffffffffffffffffffffffffffffffffffffffffffffffffff821415612b4b57612b4a612b56565b5b600182019050919050565b7f4e487b7100000000000000000000000000000000000000000000000000000000600052601160045260246000fd5b7f4e487b7100000000000000000000000000000000000000000000000000000000600052602260045260246000fd5b7f4e487b7100000000000000000000000000000000000000000000000000000000600052604160045260246000fd5b6000601f19601f8301169050919050565b7f7374696c6c206561726c7920746f20757067726164652061206e66742e000000600082015250565b7f4552433732313a2063616c6c6572206973206e6f7420746f6b656e206f776e6560008201527f72206f7220617070726f76656400000000000000000000000000000000000000602082015250565b7f4552433732313a207472616e7366657220746f206e6f6e20455243373231526560008201527f63656976657220696d706c656d656e7465720000000000000000000000000000602082015250565b7f4552433732313a207472616e736665722066726f6d20696e636f72726563742060008201527f6f776e6572000000000000000000000000000000000000000000000000000000602082015250565b7f4552433732313a20746f6b656e20616c7265616479206d696e74656400000000600082015250565b7f4552433732313a207472616e7366657220746f20746865207a65726f2061646460008201527f7265737300000000000000000000000000000000000000000000000000000000602082015250565b7f4552433732313a20617070726f766520746f2063616c6c657200000000000000600082015250565b7f4552433732313a2061646472657373207a65726f206973206e6f74206120766160008201527f6c6964206f776e65720000000000000000000000000000000000000000000000602082015250565b7f45524337323155524953746f726167653a2055524920736574206f66206e6f6e60008201527f6578697374656e7420746f6b656e000000000000000000000000000000000000602082015250565b7f6e6f206c6f6e67657220757067726164652e0000000000000000000000000000600082015250565b7f4552433732313a206d696e7420746f20746865207a65726f2061646472657373600082015250565b7f4552433732313a20696e76616c696420746f6b656e2049440000000000000000600082015250565b7f4552433732313a20617070726f76616c20746f2063757272656e74206f776e6560008201527f7200000000000000000000000000000000000000000000000000000000000000602082015250565b7f4552433732313a20617070726f76652063616c6c6572206973206e6f7420746f60008201527f6b656e206f776e6572206f7220617070726f76656420666f7220616c6c000000602082015250565b612f6b816129e0565b8114612f7657600080fd5b50565b612f82816129f2565b8114612f8d57600080fd5b50565b612f99816129fe565b8114612fa457600080fd5b50565b612fb081612a4a565b8114612fbb57600080fd5b50565b612fc781612a54565b8114612fd257600080fd5b5056fea2646970667358221220dea30a66b62c6d6df94469ab08b6ec0c1e49da4dcd8f9de973d3bda4d2bb8d7064736f6c63430008040033687474703a2f2f6c6f63616c686f73743a333333332f726561642f3f6d6574613d336135643134633236313130373838666461663164346139393438353565356562376135623431383236653231386530363138656561626663396435656161662e6a736f6e687474703a2f2f6c6f63616c686f73743a333333332f726561642f3f6d6574613d616662396238323134303430623664306339313038613930643830366236333464623337323764666634326561613433396338666434316532363739616232632e6a736f6e687474703a2f2f6c6f63616c686f73743a333333332f726561642f3f6d6574613d633966663735623462376336303935656438633664613961653963613366383865333337363632616330333566353962383434396363356534373161396333632e6a736f6e",
  "immutableReferences": {
    "3377": [
      {
        "length": 32,
        "start": 1379
      },
      {
        "length": 32,
        "start": 3201
      },
      {
        "length": 32,
        "start": 3242
      },
      {
        "length": 32,
        "start": 3316
      }
    ]
  },
  "source": "// SPDX-License-Identifier: MIT\npragma solidity ^0.8.4;\n\nimport \"@openzeppelin/contracts/token/ERC721/extensions/ERC721URIStorage.sol\";\nimport \"@openzeppelin/contracts/utils/Counters.sol\";\n\ncontract DynamicNft is ERC721URIStorage {\n\n    using Counters for Counters.Counter;\n    Counters.Counter public _tokenIdCounter;\n\n    uint public immutable interval;\n\n    string[] IpfsUri = [\n        \"http://localhost:3333/read/?meta=3a5d14c26110788fdaf1d4a994855e5eb7a5b41826e218e0618eeabfc9d5eaaf.json\",\n        \"http://localhost:3333/read/?meta=afb9b8214040b6d0c9108a90d806b634db3727dff42eaa439c8fd41e2679ab2c.json\",\n        \"http://localhost:3333/read/?meta=c9ff75b4b7c6095ed8c6da9ae9ca3f88e337662ac035f59b8449cc5e471a9c3c.json\"\n    ];\n    \n    mapping(uint => uint) public nftStage;\n    mapping(uint => uint) public lastTimeStamp;\n\n    constructor (string memory name_, string memory symbol_, uint _interval) ERC721(name_,symbol_) {\n        interval = _interval;\n    }\n\n    function mint() external returns(uint) {\n        uint256 tokenId = _tokenIdCounter.current();\n        _tokenIdCounter.increment();\n        _safeMint(msg.sender, tokenId);\n        _setTokenURI(tokenId, IpfsUri[0]);\n        nftStage[tokenId] = 0;\n        lastTimeStamp[tokenId] = block.timestamp;\n        return(tokenId);\n    }\n\n    function upgradeNft(uint64 _tokenId) external {\n        require(nftStage[_tokenId] < 2,\"no longer upgrade.\");\n        require((block.timestamp - lastTimeStamp[_tokenId]) > interval, \"still early to upgrade a nft.\");\n        nftStage[_tokenId]++;\n        lastTimeStamp[_tokenId] = block.timestamp;\n        _setTokenURI(_tokenId, IpfsUri[nftStage[_tokenId]]);\n    }\n\n    function getRemainTimeForUpgrade(uint64 _tokenId) view public returns(uint) {\n        uint passTime = block.timestamp - lastTimeStamp[_tokenId];\n        if (passTime < interval) {\n            return interval - passTime;\n        }\n        return 0;\n    }\n}",
  "sourcePath": "/Users/xuanhai/www/blockchain/nft_marketplace/contracts/DynamicNft.sol",
  "compiler": {
    "name": "solc",
    "version": "0.8.4+commit.c7e474f2.Emscripten.clang"
  },
  "schemaVersion": "3.4.11",
  "updatedAt": "2023-05-21T14:09:00.058Z",
  "networkType": "ethereum",
  "devdoc": {
    "kind": "dev",
    "methods": {
      "approve(address,uint256)": {
        "details": "See {IERC721-approve}."
      },
      "balanceOf(address)": {
        "details": "See {IERC721-balanceOf}."
      },
      "getApproved(uint256)": {
        "details": "See {IERC721-getApproved}."
      },
      "isApprovedForAll(address,address)": {
        "details": "See {IERC721-isApprovedForAll}."
      },
      "name()": {
        "details": "See {IERC721Metadata-name}."
      },
      "ownerOf(uint256)": {
        "details": "See {IERC721-ownerOf}."
      },
      "safeTransferFrom(address,address,uint256)": {
        "details": "See {IERC721-safeTransferFrom}."
      },
      "safeTransferFrom(address,address,uint256,bytes)": {
        "details": "See {IERC721-safeTransferFrom}."
      },
      "setApprovalForAll(address,bool)": {
        "details": "See {IERC721-setApprovalForAll}."
      },
      "supportsInterface(bytes4)": {
        "details": "See {IERC165-supportsInterface}."
      },
      "symbol()": {
        "details": "See {IERC721Metadata-symbol}."
      },
      "tokenURI(uint256)": {
        "details": "See {IERC721Metadata-tokenURI}."
      },
      "transferFrom(address,address,uint256)": {
        "details": "See {IERC721-transferFrom}."
      }
    },
    "version": 1
  },
  "userdoc": {
    "kind": "user",
    "methods": {},
    "version": 1
  }
}