{
  "contractName": "ERC4907",
  "abi": [
    {
      "inputs": [],
      "stateMutability": "nonpayable",
      "type": "constructor"
    },
    {
      "anonymous": false,
      "inputs": [
        {
          "indexed": true,
          "internalType": "address",
          "name": "owner",
          "type": "address"
        },
        {
          "indexed": true,
          "internalType": "address",
          "name": "approved",
          "type": "address"
        },
        {
          "indexed": true,
          "internalType": "uint256",
          "name": "tokenId",
          "type": "uint256"
        }
      ],
      "name": "Approval",
      "type": "event"
    },
    {
      "anonymous": false,
      "inputs": [
        {
          "indexed": true,
          "internalType": "address",
          "name": "owner",
          "type": "address"
        },
        {
          "indexed": true,
          "internalType": "address",
          "name": "operator",
          "type": "address"
        },
        {
          "indexed": false,
          "internalType": "bool",
          "name": "approved",
          "type": "bool"
        }
      ],
      "name": "ApprovalForAll",
      "type": "event"
    },
    {
      "anonymous": false,
      "inputs": [
        {
          "indexed": true,
          "internalType": "address",
          "name": "from",
          "type": "address"
        },
        {
          "indexed": true,
          "internalType": "address",
          "name": "to",
          "type": "address"
        },
        {
          "indexed": true,
          "internalType": "uint256",
          "name": "tokenId",
          "type": "uint256"
        }
      ],
      "name": "Transfer",
      "type": "event"
    },
    {
      "anonymous": false,
      "inputs": [
        {
          "indexed": true,
          "internalType": "uint256",
          "name": "tokenId",
          "type": "uint256"
        },
        {
          "indexed": true,
          "internalType": "address",
          "name": "user",
          "type": "address"
        },
        {
          "indexed": false,
          "internalType": "uint64",
          "name": "expires",
          "type": "uint64"
        }
      ],
      "name": "UpdateUser",
      "type": "event"
    },
    {
      "inputs": [],
      "name": "_tokenIdCounter",
      "outputs": [
        {
          "internalType": "uint256",
          "name": "_value",
          "type": "uint256"
        }
      ],
      "stateMutability": "view",
      "type": "function",
      "constant": true
    },
    {
      "inputs": [
        {
          "internalType": "address",
          "name": "to",
          "type": "address"
        },
        {
          "internalType": "uint256",
          "name": "tokenId",
          "type": "uint256"
        }
      ],
      "name": "approve",
      "outputs": [],
      "stateMutability": "nonpayable",
      "type": "function"
    },
    {
      "inputs": [
        {
          "internalType": "address",
          "name": "owner",
          "type": "address"
        }
      ],
      "name": "balanceOf",
      "outputs": [
        {
          "internalType": "uint256",
          "name": "",
          "type": "uint256"
        }
      ],
      "stateMutability": "view",
      "type": "function",
      "constant": true
    },
    {
      "inputs": [
        {
          "internalType": "uint256",
          "name": "tokenId",
          "type": "uint256"
        }
      ],
      "name": "getApproved",
      "outputs": [
        {
          "internalType": "address",
          "name": "",
          "type": "address"
        }
      ],
      "stateMutability": "view",
      "type": "function",
      "constant": true
    },
    {
      "inputs": [
        {
          "internalType": "address",
          "name": "owner",
          "type": "address"
        },
        {
          "internalType": "address",
          "name": "operator",
          "type": "address"
        }
      ],
      "name": "isApprovedForAll",
      "outputs": [
        {
          "internalType": "bool",
          "name": "",
          "type": "bool"
        }
      ],
      "stateMutability": "view",
      "type": "function",
      "constant": true
    },
    {
      "inputs": [],
      "name": "name",
      "outputs": [
        {
          "internalType": "string",
          "name": "",
          "type": "string"
        }
      ],
      "stateMutability": "view",
      "type": "function",
      "constant": true
    },
    {
      "inputs": [
        {
          "internalType": "uint256",
          "name": "tokenId",
          "type": "uint256"
        }
      ],
      "name": "ownerOf",
      "outputs": [
        {
          "internalType": "address",
          "name": "",
          "type": "address"
        }
      ],
      "stateMutability": "view",
      "type": "function",
      "constant": true
    },
    {
      "inputs": [
        {
          "internalType": "address",
          "name": "from",
          "type": "address"
        },
        {
          "internalType": "address",
          "name": "to",
          "type": "address"
        },
        {
          "internalType": "uint256",
          "name": "tokenId",
          "type": "uint256"
        }
      ],
      "name": "safeTransferFrom",
      "outputs": [],
      "stateMutability": "nonpayable",
      "type": "function"
    },
    {
      "inputs": [
        {
          "internalType": "address",
          "name": "from",
          "type": "address"
        },
        {
          "internalType": "address",
          "name": "to",
          "type": "address"
        },
        {
          "internalType": "uint256",
          "name": "tokenId",
          "type": "uint256"
        },
        {
          "internalType": "bytes",
          "name": "data",
          "type": "bytes"
        }
      ],
      "name": "safeTransferFrom",
      "outputs": [],
      "stateMutability": "nonpayable",
      "type": "function"
    },
    {
      "inputs": [
        {
          "internalType": "address",
          "name": "operator",
          "type": "address"
        },
        {
          "internalType": "bool",
          "name": "approved",
          "type": "bool"
        }
      ],
      "name": "setApprovalForAll",
      "outputs": [],
      "stateMutability": "nonpayable",
      "type": "function"
    },
    {
      "inputs": [],
      "name": "symbol",
      "outputs": [
        {
          "internalType": "string",
          "name": "",
          "type": "string"
        }
      ],
      "stateMutability": "view",
      "type": "function",
      "constant": true
    },
    {
      "inputs": [
        {
          "internalType": "uint256",
          "name": "tokenId",
          "type": "uint256"
        }
      ],
      "name": "tokenURI",
      "outputs": [
        {
          "internalType": "string",
          "name": "",
          "type": "string"
        }
      ],
      "stateMutability": "view",
      "type": "function",
      "constant": true
    },
    {
      "inputs": [
        {
          "internalType": "address",
          "name": "from",
          "type": "address"
        },
        {
          "internalType": "address",
          "name": "to",
          "type": "address"
        },
        {
          "internalType": "uint256",
          "name": "tokenId",
          "type": "uint256"
        }
      ],
      "name": "transferFrom",
      "outputs": [],
      "stateMutability": "nonpayable",
      "type": "function"
    },
    {
      "inputs": [
        {
          "internalType": "string",
          "name": "_tokenURI",
          "type": "string"
        }
      ],
      "name": "mint",
      "outputs": [
        {
          "internalType": "uint256",
          "name": "",
          "type": "uint256"
        }
      ],
      "stateMutability": "nonpayable",
      "type": "function"
    },
    {
      "inputs": [
        {
          "internalType": "uint256",
          "name": "tokenId",
          "type": "uint256"
        },
        {
          "internalType": "address",
          "name": "user",
          "type": "address"
        },
        {
          "internalType": "uint64",
          "name": "expires",
          "type": "uint64"
        }
      ],
      "name": "setUser",
      "outputs": [],
      "stateMutability": "nonpayable",
      "type": "function"
    },
    {
      "inputs": [
        {
          "internalType": "uint256",
          "name": "tokenId",
          "type": "uint256"
        }
      ],
      "name": "userOf",
      "outputs": [
        {
          "internalType": "address",
          "name": "",
          "type": "address"
        }
      ],
      "stateMutability": "view",
      "type": "function",
      "constant": true
    },
    {
      "inputs": [
        {
          "internalType": "uint256",
          "name": "tokenId",
          "type": "uint256"
        }
      ],
      "name": "userExpires",
      "outputs": [
        {
          "internalType": "uint256",
          "name": "",
          "type": "uint256"
        }
      ],
      "stateMutability": "view",
      "type": "function",
      "constant": true
    },
    {
      "inputs": [
        {
          "internalType": "bytes4",
          "name": "interfaceId",
          "type": "bytes4"
        }
      ],
      "name": "supportsInterface",
      "outputs": [
        {
          "internalType": "bool",
          "name": "",
          "type": "bool"
        }
      ],
      "stateMutability": "view",
      "type": "function",
      "constant": true
    }
  ],
  "bytecode": "0x60806040523480156200001157600080fd5b506040518060400160405280600c81526020017f52656e7461626c65204e465400000000000000000000000000000000000000008152506040518060400160405280600c81526020017f52656e7461626c65204e46540000000000000000000000000000000000000000815250816000908051906020019062000096929190620000b8565b508060019080519060200190620000af929190620000b8565b505050620001cd565b828054620000c69062000168565b90600052602060002090601f016020900481019282620000ea576000855562000136565b82601f106200010557805160ff191683800117855562000136565b8280016001018555821562000136579182015b828111156200013557825182559160200191906001019062000118565b5b50905062000145919062000149565b5090565b5b80821115620001645760008160009055506001016200014a565b5090565b600060028204905060018216806200018157607f821691505b602082108114156200019857620001976200019e565b5b50919050565b7f4e487b7100000000000000000000000000000000000000000000000000000000600052602260045260246000fd5b612fc980620001dd6000396000f3fe608060405234801561001057600080fd5b50600436106101165760003560e01c80638fc88c48116100a2578063c2f1f14a11610071578063c2f1f14a146102f1578063c87b56dd14610321578063d85d3d2714610351578063e030565e14610381578063e985e9c51461039d57610116565b80638fc88c481461026b57806395d89b411461029b578063a22cb465146102b9578063b88d4fde146102d557610116565b806323b872dd116100e957806323b872dd146101b557806342842e0e146101d15780636352211e146101ed57806370a082311461021d57806384c4bd4b1461024d57610116565b806301ffc9a71461011b57806306fdde031461014b578063081812fc14610169578063095ea7b314610199575b600080fd5b610135600480360381019061013091906122c4565b6103cd565b604051610142919061270f565b60405180910390f35b610153610447565b6040516101609190612745565b60405180910390f35b610183600480360381019061017e9190612357565b6104d9565b60405161019091906126a8565b60405180910390f35b6101b360048036038101906101ae9190612288565b61051f565b005b6101cf60048036038101906101ca9190612182565b610637565b005b6101eb60048036038101906101e69190612182565b610697565b005b61020760048036038101906102029190612357565b6106b7565b60405161021491906126a8565b60405180910390f35b6102376004803603810190610232919061211d565b61073e565b6040516102449190612907565b60405180910390f35b6102556107f6565b6040516102629190612907565b60405180910390f35b61028560048036038101906102809190612357565b610802565b6040516102929190612907565b60405180910390f35b6102a3610840565b6040516102b09190612745565b60405180910390f35b6102d360048036038101906102ce919061224c565b6108d2565b005b6102ef60048036038101906102ea91906121d1565b6108e8565b005b61030b60048036038101906103069190612357565b61094a565b60405161031891906126a8565b60405180910390f35b61033b60048036038101906103369190612357565b6109cf565b6040516103489190612745565b60405180910390f35b61036b60048036038101906103669190612316565b610ae2565b6040516103789190612907565b60405180910390f35b61039b60048036038101906103969190612380565b610b18565b005b6103b760048036038101906103b29190612146565b610c3b565b6040516103c4919061270f565b60405180910390f35b60007fad092b5c000000000000000000000000000000000000000000000000000000007bffffffffffffffffffffffffffffffffffffffffffffffffffffffff1916827bffffffffffffffffffffffffffffffffffffffffffffffffffffffff19161480610440575061043f82610ccf565b5b9050919050565b60606000805461045690612ae3565b80601f016020809104026020016040519081016040528092919081815260200182805461048290612ae3565b80156104cf5780601f106104a4576101008083540402835291602001916104cf565b820191906000526020600020905b8154815290600101906020018083116104b257829003601f168201915b5050505050905090565b60006104e482610db1565b6004600083815260200190815260200160002060009054906101000a900473ffffffffffffffffffffffffffffffffffffffff169050919050565b600061052a826106b7565b90508073ffffffffffffffffffffffffffffffffffffffff168373ffffffffffffffffffffffffffffffffffffffff16141561059b576040517f08c379a0000000000000000000000000000000000000000000000000000000008152600401610592906128a7565b60405180910390fd5b8073ffffffffffffffffffffffffffffffffffffffff166105ba610dfc565b73ffffffffffffffffffffffffffffffffffffffff1614806105e957506105e8816105e3610dfc565b610c3b565b5b610628576040517f08c379a000000000000000000000000000000000000000000000000000000000815260040161061f906128c7565b60405180910390fd5b6106328383610e04565b505050565b610648610642610dfc565b82610ebd565b610687576040517f08c379a000000000000000000000000000000000000000000000000000000000815260040161067e90612767565b60405180910390fd5b610692838383610f52565b505050565b6106b2838383604051806020016040528060008152506108e8565b505050565b6000806106c38361124c565b9050600073ffffffffffffffffffffffffffffffffffffffff168173ffffffffffffffffffffffffffffffffffffffff161415610735576040517f08c379a000000000000000000000000000000000000000000000000000000000815260040161072c90612887565b60405180910390fd5b80915050919050565b60008073ffffffffffffffffffffffffffffffffffffffff168273ffffffffffffffffffffffffffffffffffffffff1614156107af576040517f08c379a00000000000000000000000000000000000000000000000000000000081526004016107a690612827565b60405180910390fd5b600360008373ffffffffffffffffffffffffffffffffffffffff1673ffffffffffffffffffffffffffffffffffffffff168152602001908152602001600020549050919050565b60078060000154905081565b60006008600083815260200190815260200160002060000160149054906101000a900467ffffffffffffffff1667ffffffffffffffff169050919050565b60606001805461084f90612ae3565b80601f016020809104026020016040519081016040528092919081815260200182805461087b90612ae3565b80156108c85780601f1061089d576101008083540402835291602001916108c8565b820191906000526020600020905b8154815290600101906020018083116108ab57829003601f168201915b5050505050905090565b6108e46108dd610dfc565b8383611289565b5050565b6108f96108f3610dfc565b83610ebd565b610938576040517f08c379a000000000000000000000000000000000000000000000000000000000815260040161092f90612767565b60405180910390fd5b610944848484846113f6565b50505050565b6000426008600084815260200190815260200160002060000160149054906101000a900467ffffffffffffffff1667ffffffffffffffff16106109c5576008600083815260200190815260200160002060000160009054906101000a900473ffffffffffffffffffffffffffffffffffffffff1690506109ca565b600090505b919050565b60606109da82610db1565b60006006600084815260200190815260200160002080546109fa90612ae3565b80601f0160208091040260200160405190810160405280929190818152602001828054610a2690612ae3565b8015610a735780601f10610a4857610100808354040283529160200191610a73565b820191906000526020600020905b815481529060010190602001808311610a5657829003601f168201915b505050505090506000610a84611452565b9050600081511415610a9a578192505050610add565b600082511115610acf578082604051602001610ab7929190612684565b60405160208183030381529060405292505050610add565b610ad884611469565b925050505b919050565b600080610aef60076114d1565b9050610afb60076114df565b610b0533826114f5565b610b0f8184611513565b80915050919050565b610b223384610ebd565b610b61576040517f08c379a0000000000000000000000000000000000000000000000000000000008152600401610b58906128e7565b60405180910390fd5b6000600860008581526020019081526020016000209050828160000160006101000a81548173ffffffffffffffffffffffffffffffffffffffff021916908373ffffffffffffffffffffffffffffffffffffffff160217905550818160000160146101000a81548167ffffffffffffffff021916908367ffffffffffffffff1602179055508273ffffffffffffffffffffffffffffffffffffffff16847f4e06b4e7000e659094299b3533b47b6aa8ad048e95e872d23d1f4ee55af89cfe84604051610c2d9190612922565b60405180910390a350505050565b6000600560008473ffffffffffffffffffffffffffffffffffffffff1673ffffffffffffffffffffffffffffffffffffffff16815260200190815260200160002060008373ffffffffffffffffffffffffffffffffffffffff1673ffffffffffffffffffffffffffffffffffffffff16815260200190815260200160002060009054906101000a900460ff16905092915050565b60007f80ac58cd000000000000000000000000000000000000000000000000000000007bffffffffffffffffffffffffffffffffffffffffffffffffffffffff1916827bffffffffffffffffffffffffffffffffffffffffffffffffffffffff19161480610d9a57507f5b5e139f000000000000000000000000000000000000000000000000000000007bffffffffffffffffffffffffffffffffffffffffffffffffffffffff1916827bffffffffffffffffffffffffffffffffffffffffffffffffffffffff1916145b80610daa5750610da982611587565b5b9050919050565b610dba816115f1565b610df9576040517f08c379a0000000000000000000000000000000000000000000000000000000008152600401610df090612887565b60405180910390fd5b50565b600033905090565b816004600083815260200190815260200160002060006101000a81548173ffffffffffffffffffffffffffffffffffffffff021916908373ffffffffffffffffffffffffffffffffffffffff160217905550808273ffffffffffffffffffffffffffffffffffffffff16610e77836106b7565b73ffffffffffffffffffffffffffffffffffffffff167f8c5be1e5ebec7d5bd14f71427d1e84f3dd0314c0f7b2291e5b200ac8c7c3b92560405160405180910390a45050565b600080610ec9836106b7565b90508073ffffffffffffffffffffffffffffffffffffffff168473ffffffffffffffffffffffffffffffffffffffff161480610f0b5750610f0a8185610c3b565b5b80610f4957508373ffffffffffffffffffffffffffffffffffffffff16610f31846104d9565b73ffffffffffffffffffffffffffffffffffffffff16145b91505092915050565b8273ffffffffffffffffffffffffffffffffffffffff16610f72826106b7565b73ffffffffffffffffffffffffffffffffffffffff1614610fc8576040517f08c379a0000000000000000000000000000000000000000000000000000000008152600401610fbf906127a7565b60405180910390fd5b600073ffffffffffffffffffffffffffffffffffffffff168273ffffffffffffffffffffffffffffffffffffffff161415611038576040517f08c379a000000000000000000000000000000000000000000000000000000000815260040161102f906127e7565b60405180910390fd5b6110458383836001611632565b8273ffffffffffffffffffffffffffffffffffffffff16611065826106b7565b73ffffffffffffffffffffffffffffffffffffffff16146110bb576040517f08c379a00000000000000000000000000000000000000000000000000000000081526004016110b2906127a7565b60405180910390fd5b6004600082815260200190815260200160002060006101000a81549073ffffffffffffffffffffffffffffffffffffffff02191690556001600360008573ffffffffffffffffffffffffffffffffffffffff1673ffffffffffffffffffffffffffffffffffffffff168152602001908152602001600020600082825403925050819055506001600360008473ffffffffffffffffffffffffffffffffffffffff1673ffffffffffffffffffffffffffffffffffffffff16815260200190815260200160002060008282540192505081905550816002600083815260200190815260200160002060006101000a81548173ffffffffffffffffffffffffffffffffffffffff021916908373ffffffffffffffffffffffffffffffffffffffff160217905550808273ffffffffffffffffffffffffffffffffffffffff168473ffffffffffffffffffffffffffffffffffffffff167fddf252ad1be2c89b69c2b068fc378daa952ba7f163c4a11628f55a4df523b3ef60405160405180910390a46112478383836001611792565b505050565b60006002600083815260200190815260200160002060009054906101000a900473ffffffffffffffffffffffffffffffffffffffff169050919050565b8173ffffffffffffffffffffffffffffffffffffffff168373ffffffffffffffffffffffffffffffffffffffff1614156112f8576040517f08c379a00000000000000000000000000000000000000000000000000000000081526004016112ef90612807565b60405180910390fd5b80600560008573ffffffffffffffffffffffffffffffffffffffff1673ffffffffffffffffffffffffffffffffffffffff16815260200190815260200160002060008473ffffffffffffffffffffffffffffffffffffffff1673ffffffffffffffffffffffffffffffffffffffff16815260200190815260200160002060006101000a81548160ff0219169083151502179055508173ffffffffffffffffffffffffffffffffffffffff168373ffffffffffffffffffffffffffffffffffffffff167f17307eab39ab6107e8899845ad3d59bd9653f200f220920489ca2b5937696c31836040516113e9919061270f565b60405180910390a3505050565b611401848484610f52565b61140d84848484611798565b61144c576040517f08c379a000000000000000000000000000000000000000000000000000000000815260040161144390612787565b60405180910390fd5b50505050565b606060405180602001604052806000815250905090565b606061147482610db1565b600061147e611452565b9050600081511161149e57604051806020016040528060008152506114c9565b806114a88461192f565b6040516020016114b9929190612684565b6040516020818303038152906040525b915050919050565b600081600001549050919050565b6001816000016000828254019250508190555050565b61150f828260405180602001604052806000815250611a53565b5050565b61151c826115f1565b61155b576040517f08c379a000000000000000000000000000000000000000000000000000000000815260040161155290612847565b60405180910390fd5b80600660008481526020019081526020016000209080519060200190611582929190611f2c565b505050565b60007f01ffc9a7000000000000000000000000000000000000000000000000000000007bffffffffffffffffffffffffffffffffffffffffffffffffffffffff1916827bffffffffffffffffffffffffffffffffffffffffffffffffffffffff1916149050919050565b60008073ffffffffffffffffffffffffffffffffffffffff166116138361124c565b73ffffffffffffffffffffffffffffffffffffffff1614159050919050565b61163e84848484611aae565b8273ffffffffffffffffffffffffffffffffffffffff168473ffffffffffffffffffffffffffffffffffffffff16141580156116dd5750600073ffffffffffffffffffffffffffffffffffffffff166008600084815260200190815260200160002060000160009054906101000a900473ffffffffffffffffffffffffffffffffffffffff1673ffffffffffffffffffffffffffffffffffffffff1614155b1561178c5760086000838152602001908152602001600020600080820160006101000a81549073ffffffffffffffffffffffffffffffffffffffff02191690556000820160146101000a81549067ffffffffffffffff02191690555050600073ffffffffffffffffffffffffffffffffffffffff16827f4e06b4e7000e659094299b3533b47b6aa8ad048e95e872d23d1f4ee55af89cfe6000604051611783919061272a565b60405180910390a35b50505050565b50505050565b60006117b98473ffffffffffffffffffffffffffffffffffffffff16611ab4565b15611922578373ffffffffffffffffffffffffffffffffffffffff1663150b7a026117e2610dfc565b8786866040518563ffffffff1660e01b815260040161180494939291906126c3565b602060405180830381600087803b15801561181e57600080fd5b505af192505050801561184f57506040513d601f19601f8201168201806040525081019061184c91906122ed565b60015b6118d2573d806000811461187f576040519150601f19603f3d011682016040523d82523d6000602084013e611884565b606091505b506000815114156118ca576040517f08c379a00000000000000000000000000000000000000000000000000000000081526004016118c190612787565b60405180910390fd5b805181602001fd5b63150b7a0260e01b7bffffffffffffffffffffffffffffffffffffffffffffffffffffffff1916817bffffffffffffffffffffffffffffffffffffffffffffffffffffffff191614915050611927565b600190505b949350505050565b60606000600161193e84611ad7565b01905060008167ffffffffffffffff811115611983577f4e487b7100000000000000000000000000000000000000000000000000000000600052604160045260246000fd5b6040519080825280601f01601f1916602001820160405280156119b55781602001600182028036833780820191505090505b509050600082602001820190505b600115611a48578080600190039150507f3031323334353637383961626364656600000000000000000000000000000000600a86061a8153600a8581611a32577f4e487b7100000000000000000000000000000000000000000000000000000000600052601260045260246000fd5b0494506000851415611a4357611a48565b6119c3565b819350505050919050565b611a5d8383611d0e565b611a6a6000848484611798565b611aa9576040517f08c379a0000000000000000000000000000000000000000000000000000000008152600401611aa090612787565b60405180910390fd5b505050565b50505050565b6000808273ffffffffffffffffffffffffffffffffffffffff163b119050919050565b600080600090507a184f03e93ff9f4daa797ed6e38ed64bf6a1f0100000000000000008310611b5b577a184f03e93ff9f4daa797ed6e38ed64bf6a1f0100000000000000008381611b51577f4e487b7100000000000000000000000000000000000000000000000000000000600052601260045260246000fd5b0492506040810190505b6d04ee2d6d415b85acef81000000008310611bbe576d04ee2d6d415b85acef81000000008381611bb4577f4e487b7100000000000000000000000000000000000000000000000000000000600052601260045260246000fd5b0492506020810190505b662386f26fc100008310611c1357662386f26fc100008381611c09577f4e487b7100000000000000000000000000000000000000000000000000000000600052601260045260246000fd5b0492506010810190505b6305f5e1008310611c62576305f5e1008381611c58577f4e487b7100000000000000000000000000000000000000000000000000000000600052601260045260246000fd5b0492506008810190505b6127108310611cad576127108381611ca3577f4e487b7100000000000000000000000000000000000000000000000000000000600052601260045260246000fd5b0492506004810190505b60648310611cf65760648381611cec577f4e487b7100000000000000000000000000000000000000000000000000000000600052601260045260246000fd5b0492506002810190505b600a8310611d05576001810190505b80915050919050565b600073ffffffffffffffffffffffffffffffffffffffff168273ffffffffffffffffffffffffffffffffffffffff161415611d7e576040517f08c379a0000000000000000000000000000000000000000000000000000000008152600401611d7590612867565b60405180910390fd5b611d87816115f1565b15611dc7576040517f08c379a0000000000000000000000000000000000000000000000000000000008152600401611dbe906127c7565b60405180910390fd5b611dd5600083836001611632565b611dde816115f1565b15611e1e576040517f08c379a0000000000000000000000000000000000000000000000000000000008152600401611e15906127c7565b60405180910390fd5b6001600360008473ffffffffffffffffffffffffffffffffffffffff1673ffffffffffffffffffffffffffffffffffffffff16815260200190815260200160002060008282540192505081905550816002600083815260200190815260200160002060006101000a81548173ffffffffffffffffffffffffffffffffffffffff021916908373ffffffffffffffffffffffffffffffffffffffff160217905550808273ffffffffffffffffffffffffffffffffffffffff16600073ffffffffffffffffffffffffffffffffffffffff167fddf252ad1be2c89b69c2b068fc378daa952ba7f163c4a11628f55a4df523b3ef60405160405180910390a4611f28600083836001611792565b5050565b828054611f3890612ae3565b90600052602060002090601f016020900481019282611f5a5760008555611fa1565b82601f10611f7357805160ff1916838001178555611fa1565b82800160010185558215611fa1579182015b82811115611fa0578251825591602001919060010190611f85565b5b509050611fae9190611fb2565b5090565b5b80821115611fcb576000816000905550600101611fb3565b5090565b6000611fe2611fdd84612962565b61293d565b905082815260208101848484011115611ffa57600080fd5b612005848285612aa1565b509392505050565b600061202061201b84612993565b61293d565b90508281526020810184848401111561203857600080fd5b612043848285612aa1565b509392505050565b60008135905061205a81612f20565b92915050565b60008135905061206f81612f37565b92915050565b60008135905061208481612f4e565b92915050565b60008151905061209981612f4e565b92915050565b600082601f8301126120b057600080fd5b81356120c0848260208601611fcf565b91505092915050565b600082601f8301126120da57600080fd5b81356120ea84826020860161200d565b91505092915050565b60008135905061210281612f65565b92915050565b60008135905061211781612f7c565b92915050565b60006020828403121561212f57600080fd5b600061213d8482850161204b565b91505092915050565b6000806040838503121561215957600080fd5b60006121678582860161204b565b92505060206121788582860161204b565b9150509250929050565b60008060006060848603121561219757600080fd5b60006121a58682870161204b565b93505060206121b68682870161204b565b92505060406121c7868287016120f3565b9150509250925092565b600080600080608085870312156121e757600080fd5b60006121f58782880161204b565b94505060206122068782880161204b565b9350506040612217878288016120f3565b925050606085013567ffffffffffffffff81111561223457600080fd5b6122408782880161209f565b91505092959194509250565b6000806040838503121561225f57600080fd5b600061226d8582860161204b565b925050602061227e85828601612060565b9150509250929050565b6000806040838503121561229b57600080fd5b60006122a98582860161204b565b92505060206122ba858286016120f3565b9150509250929050565b6000602082840312156122d657600080fd5b60006122e484828501612075565b91505092915050565b6000602082840312156122ff57600080fd5b600061230d8482850161208a565b91505092915050565b60006020828403121561232857600080fd5b600082013567ffffffffffffffff81111561234257600080fd5b61234e848285016120c9565b91505092915050565b60006020828403121561236957600080fd5b6000612377848285016120f3565b91505092915050565b60008060006060848603121561239557600080fd5b60006123a3868287016120f3565b93505060206123b48682870161204b565b92505060406123c586828701612108565b9150509250925092565b6123d881612a07565b82525050565b6123e781612a19565b82525050565b60006123f8826129c4565b61240281856129da565b9350612412818560208601612ab0565b61241b81612ba4565b840191505092915050565b61242f81612a8f565b82525050565b6000612440826129cf565b61244a81856129eb565b935061245a818560208601612ab0565b61246381612ba4565b840191505092915050565b6000612479826129cf565b61248381856129fc565b9350612493818560208601612ab0565b80840191505092915050565b60006124ac602d836129eb565b91506124b782612bb5565b604082019050919050565b60006124cf6032836129eb565b91506124da82612c04565b604082019050919050565b60006124f26025836129eb565b91506124fd82612c53565b604082019050919050565b6000612515601c836129eb565b915061252082612ca2565b602082019050919050565b60006125386024836129eb565b915061254382612ccb565b604082019050919050565b600061255b6019836129eb565b915061256682612d1a565b602082019050919050565b600061257e6029836129eb565b915061258982612d43565b604082019050919050565b60006125a1602e836129eb565b91506125ac82612d92565b604082019050919050565b60006125c46020836129eb565b91506125cf82612de1565b602082019050919050565b60006125e76018836129eb565b91506125f282612e0a565b602082019050919050565b600061260a6021836129eb565b915061261582612e33565b604082019050919050565b600061262d603d836129eb565b915061263882612e82565b604082019050919050565b60006126506031836129eb565b915061265b82612ed1565b604082019050919050565b61266f81612a71565b82525050565b61267e81612a7b565b82525050565b6000612690828561246e565b915061269c828461246e565b91508190509392505050565b60006020820190506126bd60008301846123cf565b92915050565b60006080820190506126d860008301876123cf565b6126e560208301866123cf565b6126f26040830185612666565b818103606083015261270481846123ed565b905095945050505050565b600060208201905061272460008301846123de565b92915050565b600060208201905061273f6000830184612426565b92915050565b6000602082019050818103600083015261275f8184612435565b905092915050565b600060208201905081810360008301526127808161249f565b9050919050565b600060208201905081810360008301526127a0816124c2565b9050919050565b600060208201905081810360008301526127c0816124e5565b9050919050565b600060208201905081810360008301526127e081612508565b9050919050565b600060208201905081810360008301526128008161252b565b9050919050565b600060208201905081810360008301526128208161254e565b9050919050565b6000602082019050818103600083015261284081612571565b9050919050565b6000602082019050818103600083015261286081612594565b9050919050565b60006020820190508181036000830152612880816125b7565b9050919050565b600060208201905081810360008301526128a0816125da565b9050919050565b600060208201905081810360008301526128c0816125fd565b9050919050565b600060208201905081810360008301526128e081612620565b9050919050565b6000602082019050818103600083015261290081612643565b9050919050565b600060208201905061291c6000830184612666565b92915050565b60006020820190506129376000830184612675565b92915050565b6000612947612958565b90506129538282612b15565b919050565b6000604051905090565b600067ffffffffffffffff82111561297d5761297c612b75565b5b61298682612ba4565b9050602081019050919050565b600067ffffffffffffffff8211156129ae576129ad612b75565b5b6129b782612ba4565b9050602081019050919050565b600081519050919050565b600081519050919050565b600082825260208201905092915050565b600082825260208201905092915050565b600081905092915050565b6000612a1282612a51565b9050919050565b60008115159050919050565b60007fffffffff0000000000000000000000000000000000000000000000000000000082169050919050565b600073ffffffffffffffffffffffffffffffffffffffff82169050919050565b6000819050919050565b600067ffffffffffffffff82169050919050565b6000612a9a82612a7b565b9050919050565b82818337600083830152505050565b60005b83811015612ace578082015181840152602081019050612ab3565b83811115612add576000848401525b50505050565b60006002820490506001821680612afb57607f821691505b60208210811415612b0f57612b0e612b46565b5b50919050565b612b1e82612ba4565b810181811067ffffffffffffffff82111715612b3d57612b3c612b75565b5b80604052505050565b7f4e487b7100000000000000000000000000000000000000000000000000000000600052602260045260246000fd5b7f4e487b7100000000000000000000000000000000000000000000000000000000600052604160045260246000fd5b6000601f19601f8301169050919050565b7f4552433732313a2063616c6c6572206973206e6f7420746f6b656e206f776e6560008201527f72206f7220617070726f76656400000000000000000000000000000000000000602082015250565b7f4552433732313a207472616e7366657220746f206e6f6e20455243373231526560008201527f63656976657220696d706c656d656e7465720000000000000000000000000000602082015250565b7f4552433732313a207472616e736665722066726f6d20696e636f72726563742060008201527f6f776e6572000000000000000000000000000000000000000000000000000000602082015250565b7f4552433732313a20746f6b656e20616c7265616479206d696e74656400000000600082015250565b7f4552433732313a207472616e7366657220746f20746865207a65726f2061646460008201527f7265737300000000000000000000000000000000000000000000000000000000602082015250565b7f4552433732313a20617070726f766520746f2063616c6c657200000000000000600082015250565b7f4552433732313a2061646472657373207a65726f206973206e6f74206120766160008201527f6c6964206f776e65720000000000000000000000000000000000000000000000602082015250565b7f45524337323155524953746f726167653a2055524920736574206f66206e6f6e60008201527f6578697374656e7420746f6b656e000000000000000000000000000000000000602082015250565b7f4552433732313a206d696e7420746f20746865207a65726f2061646472657373600082015250565b7f4552433732313a20696e76616c696420746f6b656e2049440000000000000000600082015250565b7f4552433732313a20617070726f76616c20746f2063757272656e74206f776e6560008201527f7200000000000000000000000000000000000000000000000000000000000000602082015250565b7f4552433732313a20617070726f76652063616c6c6572206973206e6f7420746f60008201527f6b656e206f776e6572206f7220617070726f76656420666f7220616c6c000000602082015250565b7f4552433732313a207472616e736665722063616c6c6572206973206e6f74206f60008201527f776e6572206e6f7220617070726f766564000000000000000000000000000000602082015250565b612f2981612a07565b8114612f3457600080fd5b50565b612f4081612a19565b8114612f4b57600080fd5b50565b612f5781612a25565b8114612f6257600080fd5b50565b612f6e81612a71565b8114612f7957600080fd5b50565b612f8581612a7b565b8114612f9057600080fd5b5056fea2646970667358221220dbb0b877b554032c5959e4bb20bf9fb98f1ee608e135e8ff27f813829e64b03c64736f6c63430008040033",
  "immutableReferences": {},
  "source": "// SPDX-License-Identifier: CC0-1.0\npragma solidity ^0.8.0;\n\nimport \"@openzeppelin/contracts/token/ERC721/extensions/ERC721URIStorage.sol\";\nimport \"./IERC4907.sol\";\nimport \"@openzeppelin/contracts/utils/Counters.sol\";\n\ncontract ERC4907 is ERC721URIStorage, IERC4907 {\n    struct UserInfo\n    {\n        address user;   // address of user role\n        uint64 expires; // unix timestamp, user expires\n    }\n    using Counters for Counters.Counter;\n    Counters.Counter public _tokenIdCounter;\n\n    mapping (uint256  => UserInfo) internal _users;\n\n    constructor () ERC721(\"Rentable NFT\" , \"Rentable NFT\" ) {}\n\n    function mint(string memory _tokenURI) external returns(uint) {\n            uint256 tokenId = _tokenIdCounter.current();\n            _tokenIdCounter.increment();\n            _safeMint(msg.sender, tokenId);\n            _setTokenURI(tokenId, _tokenURI);\n            return(tokenId);\n    }\n\n    /// @notice set the user and expires of a NFT\n    /// @dev The zero address indicates there is no user\n    /// Throws if `tokenId` is not valid NFT\n    /// @param user  The new user of the NFT\n    /// @param expires  UNIX timestamp, The new user could use the NFT before expires\n    function setUser(uint256 tokenId, address user, uint64 expires) public virtual override {\n        require(_isApprovedOrOwner(msg.sender, tokenId),\"ERC721: transfer caller is not owner nor approved\");\n        UserInfo storage info =  _users[tokenId];\n        info.user = user;\n        info.expires = expires;\n        emit UpdateUser(tokenId,user,expires);\n    }\n\n    /// @notice Get the user address of an NFT\n    /// @dev The zero address indicates that there is no user or the user is expired\n    /// @param tokenId The NFT to get the user address for\n    /// @return The user address for this NFT\n    function userOf(uint256 tokenId)public view virtual override returns(address){\n        if( uint256(_users[tokenId].expires) >=  block.timestamp){\n            return  _users[tokenId].user;\n        }\n        else{\n            return address(0);\n        }\n    }\n\n    /// @notice Get the user expires of an NFT\n    /// @dev The zero value indicates that there is no user\n    /// @param tokenId The NFT to get the user expires for\n    /// @return The user expires for this NFT\n    function userExpires(uint256 tokenId) public view virtual override returns(uint256){\n        return _users[tokenId].expires;\n    }\n\n    /// @dev See {IERC165-supportsInterface}.\n    function supportsInterface(bytes4 interfaceId) public view virtual override returns (bool) {\n        return interfaceId == type(IERC4907).interfaceId || super.supportsInterface(interfaceId);\n    }\n\n    function _beforeTokenTransfer(\n        address from,\n        address to,\n        uint256 tokenId,\n        uint256 batchSize\n    ) internal virtual override {\n        super._beforeTokenTransfer(from, to, tokenId, batchSize);\n\n        if (from != to && _users[tokenId].user != address(0)) {\n            delete _users[tokenId];\n            emit UpdateUser(tokenId, address(0), 0);\n        }\n    }\n}",
  "sourcePath": "/Users/xuanhai/www/blockchain/nft_marketplace/contracts/ERC4907.sol",
  "compiler": {
    "name": "solc",
    "version": "0.8.4+commit.c7e474f2.Emscripten.clang"
  },
  "schemaVersion": "3.4.11",
  "updatedAt": "2023-05-21T14:09:00.035Z",
  "networkType": "ethereum",
  "devdoc": {
    "kind": "dev",
    "methods": {
      "approve(address,uint256)": {
        "details": "See {IERC721-approve}."
      },
      "balanceOf(address)": {
        "details": "See {IERC721-balanceOf}."
      },
      "getApproved(uint256)": {
        "details": "See {IERC721-getApproved}."
      },
      "isApprovedForAll(address,address)": {
        "details": "See {IERC721-isApprovedForAll}."
      },
      "name()": {
        "details": "See {IERC721Metadata-name}."
      },
      "ownerOf(uint256)": {
        "details": "See {IERC721-ownerOf}."
      },
      "safeTransferFrom(address,address,uint256)": {
        "details": "See {IERC721-safeTransferFrom}."
      },
      "safeTransferFrom(address,address,uint256,bytes)": {
        "details": "See {IERC721-safeTransferFrom}."
      },
      "setApprovalForAll(address,bool)": {
        "details": "See {IERC721-setApprovalForAll}."
      },
      "setUser(uint256,address,uint64)": {
        "details": "The zero address indicates there is no user Throws if `tokenId` is not valid NFT",
        "params": {
          "expires": "UNIX timestamp, The new user could use the NFT before expires",
          "user": "The new user of the NFT"
        }
      },
      "supportsInterface(bytes4)": {
        "details": "See {IERC165-supportsInterface}."
      },
      "symbol()": {
        "details": "See {IERC721Metadata-symbol}."
      },
      "tokenURI(uint256)": {
        "details": "See {IERC721Metadata-tokenURI}."
      },
      "transferFrom(address,address,uint256)": {
        "details": "See {IERC721-transferFrom}."
      },
      "userExpires(uint256)": {
        "details": "The zero value indicates that there is no user",
        "params": {
          "tokenId": "The NFT to get the user expires for"
        },
        "returns": {
          "_0": "The user expires for this NFT"
        }
      },
      "userOf(uint256)": {
        "details": "The zero address indicates that there is no user or the user is expired",
        "params": {
          "tokenId": "The NFT to get the user address for"
        },
        "returns": {
          "_0": "The user address for this NFT"
        }
      }
    },
    "version": 1
  },
  "userdoc": {
    "events": {
      "UpdateUser(uint256,address,uint64)": {
        "notice": "Emitted when the `user` of an NFT or the `expires` of the `user` is changed The zero address for user indicates that there is no user address"
      }
    },
    "kind": "user",
    "methods": {
      "setUser(uint256,address,uint64)": {
        "notice": "set the user and expires of a NFT"
      },
      "userExpires(uint256)": {
        "notice": "Get the user expires of an NFT"
      },
      "userOf(uint256)": {
        "notice": "Get the user address of an NFT"
      }
    },
    "version": 1
  }
}