{
  "contractName": "LendingPlatform",
  "abi": [
    {
      "inputs": [
        {
          "internalType": "uint256",
          "name": "_feePercent",
          "type": "uint256"
        }
      ],
      "stateMutability": "nonpayable",
      "type": "constructor"
    },
    {
      "anonymous": false,
      "inputs": [
        {
          "indexed": false,
          "internalType": "uint256",
          "name": "itemId",
          "type": "uint256"
        },
        {
          "indexed": true,
          "internalType": "address",
          "name": "nft",
          "type": "address"
        },
        {
          "indexed": false,
          "internalType": "uint256",
          "name": "tokenId",
          "type": "uint256"
        },
        {
          "indexed": false,
          "internalType": "uint256",
          "name": "price",
          "type": "uint256"
        },
        {
          "indexed": true,
          "internalType": "address",
          "name": "seller",
          "type": "address"
        },
        {
          "indexed": false,
          "internalType": "uint256",
          "name": "period",
          "type": "uint256"
        }
      ],
      "name": "Offered",
      "type": "event"
    },
    {
      "anonymous": false,
      "inputs": [
        {
          "indexed": false,
          "internalType": "uint256",
          "name": "itemId",
          "type": "uint256"
        },
        {
          "indexed": true,
          "internalType": "address",
          "name": "nft",
          "type": "address"
        },
        {
          "indexed": false,
          "internalType": "uint256",
          "name": "tokenId",
          "type": "uint256"
        },
        {
          "indexed": false,
          "internalType": "uint256",
          "name": "price",
          "type": "uint256"
        },
        {
          "indexed": true,
          "internalType": "address",
          "name": "seller",
          "type": "address"
        },
        {
          "indexed": true,
          "internalType": "address",
          "name": "buyer",
          "type": "address"
        }
      ],
      "name": "Rent",
      "type": "event"
    },
    {
      "anonymous": false,
      "inputs": [
        {
          "indexed": false,
          "internalType": "uint256",
          "name": "itemId",
          "type": "uint256"
        },
        {
          "indexed": true,
          "internalType": "address",
          "name": "nft",
          "type": "address"
        },
        {
          "indexed": false,
          "internalType": "uint256",
          "name": "tokenId",
          "type": "uint256"
        },
        {
          "indexed": true,
          "internalType": "address",
          "name": "seller",
          "type": "address"
        }
      ],
      "name": "WithdrawNft",
      "type": "event"
    },
    {
      "inputs": [],
      "name": "feeAccount",
      "outputs": [
        {
          "internalType": "address payable",
          "name": "",
          "type": "address"
        }
      ],
      "stateMutability": "view",
      "type": "function",
      "constant": true
    },
    {
      "inputs": [],
      "name": "feePercent",
      "outputs": [
        {
          "internalType": "uint256",
          "name": "",
          "type": "uint256"
        }
      ],
      "stateMutability": "view",
      "type": "function",
      "constant": true
    },
    {
      "inputs": [],
      "name": "itemCount",
      "outputs": [
        {
          "internalType": "uint256",
          "name": "",
          "type": "uint256"
        }
      ],
      "stateMutability": "view",
      "type": "function",
      "constant": true
    },
    {
      "inputs": [
        {
          "internalType": "uint256",
          "name": "",
          "type": "uint256"
        }
      ],
      "name": "items",
      "outputs": [
        {
          "internalType": "uint256",
          "name": "itemId",
          "type": "uint256"
        },
        {
          "internalType": "contract INFTLending",
          "name": "nft",
          "type": "address"
        },
        {
          "internalType": "uint256",
          "name": "tokenId",
          "type": "uint256"
        },
        {
          "internalType": "uint256",
          "name": "price",
          "type": "uint256"
        },
        {
          "internalType": "address payable",
          "name": "seller",
          "type": "address"
        },
        {
          "internalType": "uint64",
          "name": "period",
          "type": "uint64"
        },
        {
          "internalType": "bool",
          "name": "rented",
          "type": "bool"
        }
      ],
      "stateMutability": "view",
      "type": "function",
      "constant": true
    },
    {
      "inputs": [
        {
          "internalType": "contract INFTLending",
          "name": "_nft",
          "type": "address"
        },
        {
          "internalType": "uint256",
          "name": "_tokenId",
          "type": "uint256"
        },
        {
          "internalType": "uint256",
          "name": "_price",
          "type": "uint256"
        },
        {
          "internalType": "uint64",
          "name": "_period",
          "type": "uint64"
        }
      ],
      "name": "makeItem",
      "outputs": [],
      "stateMutability": "nonpayable",
      "type": "function"
    },
    {
      "inputs": [
        {
          "internalType": "uint256",
          "name": "_itemId",
          "type": "uint256"
        }
      ],
      "name": "rentItem",
      "outputs": [],
      "stateMutability": "payable",
      "type": "function",
      "payable": true
    },
    {
      "inputs": [
        {
          "internalType": "uint256",
          "name": "_itemId",
          "type": "uint256"
        }
      ],
      "name": "withdrawNft",
      "outputs": [],
      "stateMutability": "nonpayable",
      "type": "function"
    },
    {
      "inputs": [
        {
          "internalType": "uint256",
          "name": "_itemId",
          "type": "uint256"
        }
      ],
      "name": "getTotalPrice",
      "outputs": [
        {
          "internalType": "uint256",
          "name": "",
          "type": "uint256"
        }
      ],
      "stateMutability": "view",
      "type": "function",
      "constant": true
    }
  ],
  "bytecode": "0x60c06040523480156200001157600080fd5b50604051620019093803806200190983398181016040528101906200003791906200009c565b60016000819055503373ffffffffffffffffffffffffffffffffffffffff1660808173ffffffffffffffffffffffffffffffffffffffff1660601b815250508060a0818152505050620000ec565b6000815190506200009681620000d2565b92915050565b600060208284031215620000af57600080fd5b6000620000bf8482850162000085565b91505092915050565b6000819050919050565b620000dd81620000c8565b8114620000e957600080fd5b50565b60805160601c60a0516117e662000123600039600081816105e001526109ca0152600081816105b60152610baa01526117e66000f3fe60806040526004361061007b5760003560e01c8063910efae81161004e578063910efae81461012a578063bfb231d214610153578063ca7dd37514610196578063d78d3852146101d35761007b565b806330daa9e21461008057806365e17c9d146100a95780636bfb0d01146100d45780637fd6f15c146100ff575b600080fd5b34801561008c57600080fd5b506100a760048036038101906100a29190610e9e565b6101ef565b005b3480156100b557600080fd5b506100be6105b4565b6040516100cb91906110ab565b60405180910390f35b3480156100e057600080fd5b506100e96105d8565b6040516100f691906111fd565b60405180910390f35b34801561010b57600080fd5b506101146105de565b60405161012191906111fd565b60405180910390f35b34801561013657600080fd5b50610151600480360381019061014c9190610f01565b610602565b005b34801561015f57600080fd5b5061017a60048036038101906101759190610f01565b610921565b60405161018d979695949392919061124f565b60405180910390f35b3480156101a257600080fd5b506101bd60048036038101906101b89190610f01565b6109c4565b6040516101ca91906111fd565b60405180910390f35b6101ed60048036038101906101e89190610f01565b610a27565b005b6101f7610dc7565b6000821161023a576040517f08c379a00000000000000000000000000000000000000000000000000000000081526004016102319061111d565b60405180910390fd5b600073ffffffffffffffffffffffffffffffffffffffff168473ffffffffffffffffffffffffffffffffffffffff1663c2f1f14a856040518263ffffffff1660e01b815260040161028b91906111fd565b60206040518083038186803b1580156102a357600080fd5b505afa1580156102b7573d6000803e3d6000fd5b505050506040513d601f19601f820116820180604052508101906102db9190610e75565b73ffffffffffffffffffffffffffffffffffffffff1614610331576040517f08c379a00000000000000000000000000000000000000000000000000000000081526004016103289061115d565b60405180910390fd5b600160008154809291906103449061153f565b91905055508373ffffffffffffffffffffffffffffffffffffffff166323b872dd3330866040518463ffffffff1660e01b8152600401610386939291906110c6565b600060405180830381600087803b1580156103a057600080fd5b505af11580156103b4573d6000803e3d6000fd5b505050506040518060e0016040528060015481526020018573ffffffffffffffffffffffffffffffffffffffff1681526020018481526020018381526020013373ffffffffffffffffffffffffffffffffffffffff1681526020018267ffffffffffffffff168152602001600015158152506002600060015481526020019081526020016000206000820151816000015560208201518160010160006101000a81548173ffffffffffffffffffffffffffffffffffffffff021916908373ffffffffffffffffffffffffffffffffffffffff160217905550604082015181600201556060820151816003015560808201518160040160006101000a81548173ffffffffffffffffffffffffffffffffffffffff021916908373ffffffffffffffffffffffffffffffffffffffff16021790555060a08201518160040160146101000a81548167ffffffffffffffff021916908367ffffffffffffffff16021790555060c082015181600401601c6101000a81548160ff0219169083151502179055509050503373ffffffffffffffffffffffffffffffffffffffff168473ffffffffffffffffffffffffffffffffffffffff167f68691bf1ff4da1d17e26d154d655adee05f2c30e99638bfce346224ffd49099560015486868660405161059e949392919061131e565b60405180910390a36105ae610e17565b50505050565b7f000000000000000000000000000000000000000000000000000000000000000081565b60015481565b7f000000000000000000000000000000000000000000000000000000000000000081565b61060a610dc7565b60006002600083815260200190815260200160002090508060040160009054906101000a900473ffffffffffffffffffffffffffffffffffffffff1673ffffffffffffffffffffffffffffffffffffffff163373ffffffffffffffffffffffffffffffffffffffff16146106b3576040517f08c379a00000000000000000000000000000000000000000000000000000000081526004016106aa906111bd565b60405180910390fd5b600073ffffffffffffffffffffffffffffffffffffffff168160010160009054906101000a900473ffffffffffffffffffffffffffffffffffffffff1673ffffffffffffffffffffffffffffffffffffffff1663c2f1f14a83600201546040518263ffffffff1660e01b815260040161072c91906111fd565b60206040518083038186803b15801561074457600080fd5b505afa158015610758573d6000803e3d6000fd5b505050506040513d601f19601f8201168201806040525081019061077c9190610e75565b73ffffffffffffffffffffffffffffffffffffffff16146107d2576040517f08c379a00000000000000000000000000000000000000000000000000000000081526004016107c99061117d565b60405180910390fd5b600181600401601c6101000a81548160ff0219169083151502179055508060010160009054906101000a900473ffffffffffffffffffffffffffffffffffffffff1673ffffffffffffffffffffffffffffffffffffffff166323b872dd303384600201546040518463ffffffff1660e01b8152600401610854939291906110c6565b600060405180830381600087803b15801561086e57600080fd5b505af1158015610882573d6000803e3d6000fd5b505050503373ffffffffffffffffffffffffffffffffffffffff168160010160009054906101000a900473ffffffffffffffffffffffffffffffffffffffff1673ffffffffffffffffffffffffffffffffffffffff167fdc24973a1ce5bc531b02b4c7618b1c110f0e580534719bd673434c817e87e93284846002015460405161090d9291906112be565b60405180910390a35061091e610e17565b50565b60026020528060005260406000206000915090508060000154908060010160009054906101000a900473ffffffffffffffffffffffffffffffffffffffff16908060020154908060030154908060040160009054906101000a900473ffffffffffffffffffffffffffffffffffffffff16908060040160149054906101000a900467ffffffffffffffff169080600401601c9054906101000a900460ff16905087565b600060647f000000000000000000000000000000000000000000000000000000000000000060646109f59190611374565b6002600085815260200190815260200160002060030154610a1691906113fb565b610a2091906113ca565b9050919050565b610a2f610dc7565b6000610a3a826109c4565b90506000600260008481526020019081526020016000209050600083118015610a6557506001548311155b610aa4576040517f08c379a0000000000000000000000000000000000000000000000000000000008152600401610a9b9061119d565b60405180910390fd5b81341015610ae7576040517f08c379a0000000000000000000000000000000000000000000000000000000008152600401610ade9061113d565b60405180910390fd5b80600401601c9054906101000a900460ff1615610b39576040517f08c379a0000000000000000000000000000000000000000000000000000000008152600401610b30906110fd565b60405180910390fd5b8060040160009054906101000a900473ffffffffffffffffffffffffffffffffffffffff1673ffffffffffffffffffffffffffffffffffffffff166108fc82600301549081150290604051600060405180830381858888f19350505050158015610ba7573d6000803e3d6000fd5b507f000000000000000000000000000000000000000000000000000000000000000073ffffffffffffffffffffffffffffffffffffffff166108fc826003015484610bf29190611455565b9081150290604051600060405180830381858888f19350505050158015610c1d573d6000803e3d6000fd5b50600181600401601c6101000a81548160ff0219169083151502179055508060010160009054906101000a900473ffffffffffffffffffffffffffffffffffffffff1673ffffffffffffffffffffffffffffffffffffffff1663e030565e8260020154338460040160149054906101000a900467ffffffffffffffff166040518463ffffffff1660e01b8152600401610cb893929190611218565b600060405180830381600087803b158015610cd257600080fd5b505af1158015610ce6573d6000803e3d6000fd5b505050503373ffffffffffffffffffffffffffffffffffffffff168160040160009054906101000a900473ffffffffffffffffffffffffffffffffffffffff1673ffffffffffffffffffffffffffffffffffffffff168260010160009054906101000a900473ffffffffffffffffffffffffffffffffffffffff1673ffffffffffffffffffffffffffffffffffffffff167f8694f6ea50144f916e0dada7e43ddd69fbd52a27fb42a77c36dc8f3545546cc18685600201548660030154604051610db2939291906112e7565b60405180910390a45050610dc4610e17565b50565b60026000541415610e0d576040517f08c379a0000000000000000000000000000000000000000000000000000000008152600401610e04906111dd565b60405180910390fd5b6002600081905550565b6001600081905550565b600081519050610e3081611754565b92915050565b600081359050610e458161176b565b92915050565b600081359050610e5a81611782565b92915050565b600081359050610e6f81611799565b92915050565b600060208284031215610e8757600080fd5b6000610e9584828501610e21565b91505092915050565b60008060008060808587031215610eb457600080fd5b6000610ec287828801610e36565b9450506020610ed387828801610e4b565b9350506040610ee487828801610e4b565b9250506060610ef587828801610e60565b91505092959194509250565b600060208284031215610f1357600080fd5b6000610f2184828501610e4b565b91505092915050565b610f338161149b565b82525050565b610f4281611489565b82525050565b610f51816114ad565b82525050565b610f6081611509565b82525050565b6000610f73601383611363565b9150610f7e826115e6565b602082019050919050565b6000610f96601f83611363565b9150610fa18261160f565b602082019050919050565b6000610fb9603383611363565b9150610fc482611638565b604082019050919050565b6000610fdc601483611363565b9150610fe782611687565b602082019050919050565b6000610fff601c83611363565b915061100a826116b0565b602082019050919050565b6000611022601283611363565b915061102d826116d9565b602082019050919050565b6000611045600983611363565b915061105082611702565b602082019050919050565b6000611068601f83611363565b91506110738261172b565b602082019050919050565b611087816114eb565b82525050565b6110968161152d565b82525050565b6110a5816114f5565b82525050565b60006020820190506110c06000830184610f2a565b92915050565b60006060820190506110db6000830186610f39565b6110e86020830185610f39565b6110f5604083018461107e565b949350505050565b6000602082019050818103600083015261111681610f66565b9050919050565b6000602082019050818103600083015261113681610f89565b9050919050565b6000602082019050818103600083015261115681610fac565b9050919050565b6000602082019050818103600083015261117681610fcf565b9050919050565b6000602082019050818103600083015261119681610ff2565b9050919050565b600060208201905081810360008301526111b681611015565b9050919050565b600060208201905081810360008301526111d681611038565b9050919050565b600060208201905081810360008301526111f68161105b565b9050919050565b6000602082019050611212600083018461107e565b92915050565b600060608201905061122d600083018661107e565b61123a6020830185610f39565b611247604083018461109c565b949350505050565b600060e082019050611264600083018a61107e565b6112716020830189610f57565b61127e604083018861107e565b61128b606083018761107e565b6112986080830186610f2a565b6112a560a083018561109c565b6112b260c0830184610f48565b98975050505050505050565b60006040820190506112d3600083018561107e565b6112e0602083018461107e565b9392505050565b60006060820190506112fc600083018661107e565b611309602083018561107e565b611316604083018461107e565b949350505050565b6000608082019050611333600083018761107e565b611340602083018661107e565b61134d604083018561107e565b61135a606083018461108d565b95945050505050565b600082825260208201905092915050565b600061137f826114eb565b915061138a836114eb565b9250827fffffffffffffffffffffffffffffffffffffffffffffffffffffffffffffffff038211156113bf576113be611588565b5b828201905092915050565b60006113d5826114eb565b91506113e0836114eb565b9250826113f0576113ef6115b7565b5b828204905092915050565b6000611406826114eb565b9150611411836114eb565b9250817fffffffffffffffffffffffffffffffffffffffffffffffffffffffffffffffff048311821515161561144a57611449611588565b5b828202905092915050565b6000611460826114eb565b915061146b836114eb565b92508282101561147e5761147d611588565b5b828203905092915050565b6000611494826114cb565b9050919050565b60006114a6826114cb565b9050919050565b60008115159050919050565b60006114c482611489565b9050919050565b600073ffffffffffffffffffffffffffffffffffffffff82169050919050565b6000819050919050565b600067ffffffffffffffff82169050919050565b60006115148261151b565b9050919050565b6000611526826114cb565b9050919050565b6000611538826114f5565b9050919050565b600061154a826114eb565b91507fffffffffffffffffffffffffffffffffffffffffffffffffffffffffffffffff82141561157d5761157c611588565b5b600182019050919050565b7f4e487b7100000000000000000000000000000000000000000000000000000000600052601160045260246000fd5b7f4e487b7100000000000000000000000000000000000000000000000000000000600052601260045260246000fd5b7f6974656d20616c72656164792072656e74656400000000000000000000000000600082015250565b7f5072696365206d7573742062652067726561746572207468616e207a65726f00600082015250565b7f6e6f7420656e6f75676820657468657220746f20636f766572206974656d207060008201527f7269636520616e64206d61726b65742066656500000000000000000000000000602082015250565b7f4e6674206973206265696e672072656e7465642e000000000000000000000000600082015250565b7f6974656d20616c7265616479206973206265696e672072656e74656400000000600082015250565b7f6974656d20646f65736e27742065786973740000000000000000000000000000600082015250565b7f4e6f74206f776e65720000000000000000000000000000000000000000000000600082015250565b7f5265656e7472616e637947756172643a207265656e7472616e742063616c6c00600082015250565b61175d81611489565b811461176857600080fd5b50565b611774816114b9565b811461177f57600080fd5b50565b61178b816114eb565b811461179657600080fd5b50565b6117a2816114f5565b81146117ad57600080fd5b5056fea2646970667358221220aa7caafd45c7c76bbd23e50ada9046641b137eb837ae63a2da619a74b2a43e8164736f6c63430008040033",
  "immutableReferences": {
    "3825": [
      {
        "length": 32,
        "start": 1462
      },
      {
        "length": 32,
        "start": 2986
      }
    ],
    "3827": [
      {
        "length": 32,
        "start": 1504
      },
      {
        "length": 32,
        "start": 2506
      }
    ]
  },
  "source": "// SPDX-License-Identifier: MIT\npragma solidity ^0.8.4;\n\nimport \"@openzeppelin/contracts/token/ERC721/IERC721.sol\";\nimport \"@openzeppelin/contracts/security/ReentrancyGuard.sol\";\nimport \"./INFTLending.sol\";\n\ncontract LendingPlatform is ReentrancyGuard {\n\n    // Variables\n    address payable public immutable feeAccount; // the account that receives fees\n    uint public immutable feePercent; // the fee percentage on sales \n    uint public itemCount; \n\n    struct Item {\n        uint itemId;\n        INFTLending nft;\n        uint tokenId;\n        uint price;\n        address payable seller;\n        uint64 period;\n        bool rented;\n    }\n\n    // itemId -> Item\n    mapping(uint => Item) public items;\n\n    event Offered(\n        uint itemId,\n        address indexed nft,\n        uint tokenId,\n        uint price,\n        address indexed seller,\n        uint period\n    );\n    event Rent(\n        uint itemId,\n        address indexed nft,\n        uint tokenId,\n        uint price,\n        address indexed seller,\n        address indexed buyer\n    );\n\n    event WithdrawNft(\n        uint itemId,\n        address indexed nft,\n        uint tokenId,\n        address indexed seller\n    );\n\n    constructor(uint _feePercent) {\n        feeAccount = payable(msg.sender);\n        feePercent = _feePercent;\n    }\n\n    // Make item to offer on the marketplace\n    function makeItem(INFTLending _nft, uint _tokenId, uint _price, uint64 _period) external nonReentrant {\n        require(_price > 0, \"Price must be greater than zero\");\n        require(_nft.userOf(_tokenId) == address(0), \"Nft is being rented.\");\n        // increment itemCount\n        itemCount ++;\n        // transfer nft\n        _nft.transferFrom(msg.sender, address(this), _tokenId);\n        // add new item to items mapping\n        items[itemCount] = Item (\n            itemCount,\n            _nft,\n            _tokenId,\n            _price,\n            payable(msg.sender),\n            _period,\n            false\n        );\n\n        // emit Offered event\n        emit Offered(\n            itemCount,\n            address(_nft),\n            _tokenId,\n            _price,\n            msg.sender,\n            _period\n        );\n    }\n\n    function rentItem(uint _itemId) external payable nonReentrant {\n        uint _totalPrice = getTotalPrice(_itemId);\n        Item storage item = items[_itemId];\n        require(_itemId > 0 && _itemId <= itemCount, \"item doesn't exist\");\n        require(msg.value >= _totalPrice, \"not enough ether to cover item price and market fee\");\n        require(!item.rented, \"item already rented\");\n        item.seller.transfer(item.price);\n        feeAccount.transfer(_totalPrice - item.price);\n        item.rented = true;\n        item.nft.setUser(item.tokenId, msg.sender, item.period);\n        emit Rent(\n            _itemId,\n            address(item.nft),\n            item.tokenId,\n            item.price,\n            item.seller,\n            msg.sender\n        );\n    }\n\n    function withdrawNft(uint _itemId) external nonReentrant {\n        Item storage item = items[_itemId];\n        require(msg.sender == item.seller, \"Not owner\");\n        require(item.nft.userOf(item.tokenId) == address(0), \"item already is being rented\");\n        item.rented = true;\n        item.nft.transferFrom(address(this), msg.sender, item.tokenId);\n        emit WithdrawNft(\n            _itemId,\n            address(item.nft),\n            item.tokenId,\n            msg.sender\n        );\n    }\n\n    function getTotalPrice(uint _itemId) view public returns(uint){\n        return((items[_itemId].price*(100 + feePercent))/100);\n    }\n}",
  "sourcePath": "/Users/xuanhai/www/blockchain/nft_marketplace/contracts/LendingPlatform.sol",
  "compiler": {
    "name": "solc",
    "version": "0.8.4+commit.c7e474f2.Emscripten.clang"
  },
  "schemaVersion": "3.4.11",
  "updatedAt": "2023-05-21T14:09:00.048Z",
  "networkType": "ethereum",
  "devdoc": {
    "kind": "dev",
    "methods": {},
    "version": 1
  },
  "userdoc": {
    "kind": "user",
    "methods": {},
    "version": 1
  }
}