{
  "contractName": "Marketplace",
  "abi": [
    {
      "inputs": [
        {
          "internalType": "uint256",
          "name": "_feePercent",
          "type": "uint256"
        }
      ],
      "stateMutability": "nonpayable",
      "type": "constructor"
    },
    {
      "anonymous": false,
      "inputs": [
        {
          "indexed": false,
          "internalType": "uint256",
          "name": "itemId",
          "type": "uint256"
        },
        {
          "indexed": true,
          "internalType": "address",
          "name": "nft",
          "type": "address"
        },
        {
          "indexed": false,
          "internalType": "uint256",
          "name": "tokenId",
          "type": "uint256"
        },
        {
          "indexed": false,
          "internalType": "uint256",
          "name": "price",
          "type": "uint256"
        },
        {
          "indexed": true,
          "internalType": "address",
          "name": "seller",
          "type": "address"
        },
        {
          "indexed": true,
          "internalType": "address",
          "name": "buyer",
          "type": "address"
        }
      ],
      "name": "Bought",
      "type": "event"
    },
    {
      "anonymous": false,
      "inputs": [
        {
          "indexed": false,
          "internalType": "uint256",
          "name": "itemId",
          "type": "uint256"
        },
        {
          "indexed": true,
          "internalType": "address",
          "name": "nft",
          "type": "address"
        },
        {
          "indexed": false,
          "internalType": "uint256",
          "name": "tokenId",
          "type": "uint256"
        },
        {
          "indexed": false,
          "internalType": "uint256",
          "name": "price",
          "type": "uint256"
        },
        {
          "indexed": true,
          "internalType": "address",
          "name": "seller",
          "type": "address"
        }
      ],
      "name": "Offered",
      "type": "event"
    },
    {
      "anonymous": false,
      "inputs": [
        {
          "indexed": false,
          "internalType": "uint256",
          "name": "itemId",
          "type": "uint256"
        },
        {
          "indexed": true,
          "internalType": "address",
          "name": "nft",
          "type": "address"
        },
        {
          "indexed": false,
          "internalType": "uint256",
          "name": "tokenId",
          "type": "uint256"
        },
        {
          "indexed": true,
          "internalType": "address",
          "name": "seller",
          "type": "address"
        }
      ],
      "name": "WithdrawNft",
      "type": "event"
    },
    {
      "inputs": [],
      "name": "feeAccount",
      "outputs": [
        {
          "internalType": "address payable",
          "name": "",
          "type": "address"
        }
      ],
      "stateMutability": "view",
      "type": "function",
      "constant": true
    },
    {
      "inputs": [],
      "name": "feePercent",
      "outputs": [
        {
          "internalType": "uint256",
          "name": "",
          "type": "uint256"
        }
      ],
      "stateMutability": "view",
      "type": "function",
      "constant": true
    },
    {
      "inputs": [],
      "name": "itemCount",
      "outputs": [
        {
          "internalType": "uint256",
          "name": "",
          "type": "uint256"
        }
      ],
      "stateMutability": "view",
      "type": "function",
      "constant": true
    },
    {
      "inputs": [
        {
          "internalType": "uint256",
          "name": "",
          "type": "uint256"
        }
      ],
      "name": "items",
      "outputs": [
        {
          "internalType": "uint256",
          "name": "itemId",
          "type": "uint256"
        },
        {
          "internalType": "contract IERC721",
          "name": "nft",
          "type": "address"
        },
        {
          "internalType": "uint256",
          "name": "tokenId",
          "type": "uint256"
        },
        {
          "internalType": "uint256",
          "name": "price",
          "type": "uint256"
        },
        {
          "internalType": "address payable",
          "name": "seller",
          "type": "address"
        },
        {
          "internalType": "bool",
          "name": "sold",
          "type": "bool"
        }
      ],
      "stateMutability": "view",
      "type": "function",
      "constant": true
    },
    {
      "inputs": [
        {
          "internalType": "contract IERC721",
          "name": "_nft",
          "type": "address"
        },
        {
          "internalType": "uint256",
          "name": "_tokenId",
          "type": "uint256"
        },
        {
          "internalType": "uint256",
          "name": "_price",
          "type": "uint256"
        }
      ],
      "name": "makeItem",
      "outputs": [],
      "stateMutability": "nonpayable",
      "type": "function"
    },
    {
      "inputs": [
        {
          "internalType": "uint256",
          "name": "_itemId",
          "type": "uint256"
        }
      ],
      "name": "purchaseItem",
      "outputs": [],
      "stateMutability": "payable",
      "type": "function",
      "payable": true
    },
    {
      "inputs": [
        {
          "internalType": "uint256",
          "name": "_itemId",
          "type": "uint256"
        }
      ],
      "name": "withdrawNft",
      "outputs": [],
      "stateMutability": "nonpayable",
      "type": "function"
    },
    {
      "inputs": [
        {
          "internalType": "uint256",
          "name": "_itemId",
          "type": "uint256"
        }
      ],
      "name": "getTotalPrice",
      "outputs": [
        {
          "internalType": "uint256",
          "name": "",
          "type": "uint256"
        }
      ],
      "stateMutability": "view",
      "type": "function",
      "constant": true
    }
  ],
  "bytecode": "0x60c060405234801561001057600080fd5b50604051620014893803806200148983398181016040528101906100349190610096565b60016000819055503373ffffffffffffffffffffffffffffffffffffffff1660808173ffffffffffffffffffffffffffffffffffffffff1660601b815250508060a08181525050506100e0565b600081519050610090816100c9565b92915050565b6000602082840312156100a857600080fd5b60006100b684828501610081565b91505092915050565b6000819050919050565b6100d2816100bf565b81146100dd57600080fd5b50565b60805160601c60a051611372620001176000396000818161021a015261051d0152600081816101f001526106fd01526113726000f3fe60806040526004361061007b5760003560e01c8063bfb231d21161004e578063bfb231d21461012a578063ca7dd3751461016c578063d38ea5bf146101a9578063fa00afc7146101c55761007b565b806365e17c9d146100805780636bfb0d01146100ab5780637fd6f15c146100d6578063910efae814610101575b600080fd5b34801561008c57600080fd5b506100956101ee565b6040516100a29190610da7565b60405180910390f35b3480156100b757600080fd5b506100c0610212565b6040516100cd9190610eb9565b60405180910390f35b3480156100e257600080fd5b506100eb610218565b6040516100f89190610eb9565b60405180910390f35b34801561010d57600080fd5b5061012860048036038101906101239190610c61565b61023c565b005b34801561013657600080fd5b50610151600480360381019061014c9190610c61565b61048e565b60405161016396959493929190610ed4565b60405180910390f35b34801561017857600080fd5b50610193600480360381019061018e9190610c61565b610517565b6040516101a09190610eb9565b60405180910390f35b6101c360048036038101906101be9190610c61565b61057a565b005b3480156101d157600080fd5b506101ec60048036038101906101e79190610c12565b610902565b005b7f000000000000000000000000000000000000000000000000000000000000000081565b60015481565b7f000000000000000000000000000000000000000000000000000000000000000081565b610244610b8e565b60006002600083815260200190815260200160002090508060040160009054906101000a900473ffffffffffffffffffffffffffffffffffffffff1673ffffffffffffffffffffffffffffffffffffffff163373ffffffffffffffffffffffffffffffffffffffff16146102ed576040517f08c379a00000000000000000000000000000000000000000000000000000000081526004016102e490610e79565b60405180910390fd5b8060040160149054906101000a900460ff161561033f576040517f08c379a000000000000000000000000000000000000000000000000000000000815260040161033690610df9565b60405180910390fd5b60018160040160146101000a81548160ff0219169083151502179055508060010160009054906101000a900473ffffffffffffffffffffffffffffffffffffffff1673ffffffffffffffffffffffffffffffffffffffff166323b872dd303384600201546040518463ffffffff1660e01b81526004016103c193929190610dc2565b600060405180830381600087803b1580156103db57600080fd5b505af11580156103ef573d6000803e3d6000fd5b505050503373ffffffffffffffffffffffffffffffffffffffff168160010160009054906101000a900473ffffffffffffffffffffffffffffffffffffffff1673ffffffffffffffffffffffffffffffffffffffff167fdc24973a1ce5bc531b02b4c7618b1c110f0e580534719bd673434c817e87e93284846002015460405161047a929190610f35565b60405180910390a35061048b610bde565b50565b60026020528060005260406000206000915090508060000154908060010160009054906101000a900473ffffffffffffffffffffffffffffffffffffffff16908060020154908060030154908060040160009054906101000a900473ffffffffffffffffffffffffffffffffffffffff16908060040160149054906101000a900460ff16905086565b600060647f000000000000000000000000000000000000000000000000000000000000000060646105489190610fa6565b6002600085815260200190815260200160002060030154610569919061102d565b6105739190610ffc565b9050919050565b610582610b8e565b600061058d82610517565b905060006002600084815260200190815260200160002090506000831180156105b857506001548311155b6105f7576040517f08c379a00000000000000000000000000000000000000000000000000000000081526004016105ee90610e59565b60405180910390fd5b8134101561063a576040517f08c379a000000000000000000000000000000000000000000000000000000000815260040161063190610e39565b60405180910390fd5b8060040160149054906101000a900460ff161561068c576040517f08c379a000000000000000000000000000000000000000000000000000000000815260040161068390610df9565b60405180910390fd5b8060040160009054906101000a900473ffffffffffffffffffffffffffffffffffffffff1673ffffffffffffffffffffffffffffffffffffffff166108fc82600301549081150290604051600060405180830381858888f193505050501580156106fa573d6000803e3d6000fd5b507f000000000000000000000000000000000000000000000000000000000000000073ffffffffffffffffffffffffffffffffffffffff166108fc8260030154846107459190611087565b9081150290604051600060405180830381858888f19350505050158015610770573d6000803e3d6000fd5b5060018160040160146101000a81548160ff0219169083151502179055508060010160009054906101000a900473ffffffffffffffffffffffffffffffffffffffff1673ffffffffffffffffffffffffffffffffffffffff166323b872dd303384600201546040518463ffffffff1660e01b81526004016107f393929190610dc2565b600060405180830381600087803b15801561080d57600080fd5b505af1158015610821573d6000803e3d6000fd5b505050503373ffffffffffffffffffffffffffffffffffffffff168160040160009054906101000a900473ffffffffffffffffffffffffffffffffffffffff1673ffffffffffffffffffffffffffffffffffffffff168260010160009054906101000a900473ffffffffffffffffffffffffffffffffffffffff1673ffffffffffffffffffffffffffffffffffffffff167f8b4c9c8a607d67b321582dd8461041b1dc2ceeca70c8b7f37f8e02095cf2e76d86856002015486600301546040516108ed93929190610f5e565b60405180910390a450506108ff610bde565b50565b61090a610b8e565b6000811161094d576040517f08c379a000000000000000000000000000000000000000000000000000000000815260040161094490610e19565b60405180910390fd5b600160008154809291906109609061114b565b91905055508273ffffffffffffffffffffffffffffffffffffffff166323b872dd3330856040518463ffffffff1660e01b81526004016109a293929190610dc2565b600060405180830381600087803b1580156109bc57600080fd5b505af11580156109d0573d6000803e3d6000fd5b505050506040518060c0016040528060015481526020018473ffffffffffffffffffffffffffffffffffffffff1681526020018381526020018281526020013373ffffffffffffffffffffffffffffffffffffffff168152602001600015158152506002600060015481526020019081526020016000206000820151816000015560208201518160010160006101000a81548173ffffffffffffffffffffffffffffffffffffffff021916908373ffffffffffffffffffffffffffffffffffffffff160217905550604082015181600201556060820151816003015560808201518160040160006101000a81548173ffffffffffffffffffffffffffffffffffffffff021916908373ffffffffffffffffffffffffffffffffffffffff16021790555060a08201518160040160146101000a81548160ff0219169083151502179055509050503373ffffffffffffffffffffffffffffffffffffffff168373ffffffffffffffffffffffffffffffffffffffff167f655a0cf9c8db81512be9a76dc1c5ae5380b8816ce6ad659cd61b715e2999d59a6001548585604051610b7993929190610f5e565b60405180910390a3610b89610bde565b505050565b60026000541415610bd4576040517f08c379a0000000000000000000000000000000000000000000000000000000008152600401610bcb90610e99565b60405180910390fd5b6002600081905550565b6001600081905550565b600081359050610bf78161130e565b92915050565b600081359050610c0c81611325565b92915050565b600080600060608486031215610c2757600080fd5b6000610c3586828701610be8565b9350506020610c4686828701610bfd565b9250506040610c5786828701610bfd565b9150509250925092565b600060208284031215610c7357600080fd5b6000610c8184828501610bfd565b91505092915050565b610c93816110cd565b82525050565b610ca2816110bb565b82525050565b610cb1816110df565b82525050565b610cc081611127565b82525050565b6000610cd3601183610f95565b9150610cde826111f2565b602082019050919050565b6000610cf6601f83610f95565b9150610d018261121b565b602082019050919050565b6000610d19603383610f95565b9150610d2482611244565b604082019050919050565b6000610d3c601283610f95565b9150610d4782611293565b602082019050919050565b6000610d5f600983610f95565b9150610d6a826112bc565b602082019050919050565b6000610d82601f83610f95565b9150610d8d826112e5565b602082019050919050565b610da18161111d565b82525050565b6000602082019050610dbc6000830184610c8a565b92915050565b6000606082019050610dd76000830186610c99565b610de46020830185610c99565b610df16040830184610d98565b949350505050565b60006020820190508181036000830152610e1281610cc6565b9050919050565b60006020820190508181036000830152610e3281610ce9565b9050919050565b60006020820190508181036000830152610e5281610d0c565b9050919050565b60006020820190508181036000830152610e7281610d2f565b9050919050565b60006020820190508181036000830152610e9281610d52565b9050919050565b60006020820190508181036000830152610eb281610d75565b9050919050565b6000602082019050610ece6000830184610d98565b92915050565b600060c082019050610ee96000830189610d98565b610ef66020830188610cb7565b610f036040830187610d98565b610f106060830186610d98565b610f1d6080830185610c8a565b610f2a60a0830184610ca8565b979650505050505050565b6000604082019050610f4a6000830185610d98565b610f576020830184610d98565b9392505050565b6000606082019050610f736000830186610d98565b610f806020830185610d98565b610f8d6040830184610d98565b949350505050565b600082825260208201905092915050565b6000610fb18261111d565b9150610fbc8361111d565b9250827fffffffffffffffffffffffffffffffffffffffffffffffffffffffffffffffff03821115610ff157610ff0611194565b5b828201905092915050565b60006110078261111d565b91506110128361111d565b925082611022576110216111c3565b5b828204905092915050565b60006110388261111d565b91506110438361111d565b9250817fffffffffffffffffffffffffffffffffffffffffffffffffffffffffffffffff048311821515161561107c5761107b611194565b5b828202905092915050565b60006110928261111d565b915061109d8361111d565b9250828210156110b0576110af611194565b5b828203905092915050565b60006110c6826110fd565b9050919050565b60006110d8826110fd565b9050919050565b60008115159050919050565b60006110f6826110bb565b9050919050565b600073ffffffffffffffffffffffffffffffffffffffff82169050919050565b6000819050919050565b600061113282611139565b9050919050565b6000611144826110fd565b9050919050565b60006111568261111d565b91507fffffffffffffffffffffffffffffffffffffffffffffffffffffffffffffffff82141561118957611188611194565b5b600182019050919050565b7f4e487b7100000000000000000000000000000000000000000000000000000000600052601160045260246000fd5b7f4e487b7100000000000000000000000000000000000000000000000000000000600052601260045260246000fd5b7f6974656d20616c726561647920736f6c64000000000000000000000000000000600082015250565b7f5072696365206d7573742062652067726561746572207468616e207a65726f00600082015250565b7f6e6f7420656e6f75676820657468657220746f20636f766572206974656d207060008201527f7269636520616e64206d61726b65742066656500000000000000000000000000602082015250565b7f6974656d20646f65736e27742065786973740000000000000000000000000000600082015250565b7f4e6f74206f776e65720000000000000000000000000000000000000000000000600082015250565b7f5265656e7472616e637947756172643a207265656e7472616e742063616c6c00600082015250565b611317816110eb565b811461132257600080fd5b50565b61132e8161111d565b811461133957600080fd5b5056fea2646970667358221220eda39dd516fc1ab46488cbca48a9efed639cc34fd71aaaec2524ba829f16c5ff64736f6c63430008040033",
  "immutableReferences": {
    "4192": [
      {
        "length": 32,
        "start": 496
      },
      {
        "length": 32,
        "start": 1789
      }
    ],
    "4194": [
      {
        "length": 32,
        "start": 538
      },
      {
        "length": 32,
        "start": 1309
      }
    ]
  },
  "source": "// SPDX-License-Identifier: MIT\npragma solidity ^0.8.4;\n\nimport \"@openzeppelin/contracts/token/ERC721/IERC721.sol\";\nimport \"@openzeppelin/contracts/security/ReentrancyGuard.sol\";\n\ncontract Marketplace is ReentrancyGuard {\n\n    // Variables\n    address payable public immutable feeAccount; // the account that receives fees\n    uint public immutable feePercent; // the fee percentage on sales \n    uint public itemCount; \n\n    struct Item {\n        uint itemId;\n        IERC721 nft;\n        uint tokenId;\n        uint price;\n        address payable seller;\n        bool sold;\n    }\n\n    // itemId -> Item\n    mapping(uint => Item) public items;\n\n    event Offered(\n        uint itemId,\n        address indexed nft,\n        uint tokenId,\n        uint price,\n        address indexed seller\n    );\n    event Bought(\n        uint itemId,\n        address indexed nft,\n        uint tokenId,\n        uint price,\n        address indexed seller,\n        address indexed buyer\n    );\n\n    event WithdrawNft(\n        uint itemId,\n        address indexed nft,\n        uint tokenId,\n        address indexed seller\n    );\n\n    constructor(uint _feePercent) {\n        feeAccount = payable(msg.sender);\n        feePercent = _feePercent;\n    }\n\n    // Make item to offer on the marketplace\n    function makeItem(IERC721 _nft, uint _tokenId, uint _price) external nonReentrant {\n        require(_price > 0, \"Price must be greater than zero\");\n        // increment itemCount\n        itemCount ++;\n        // transfer nft\n        _nft.transferFrom(msg.sender, address(this), _tokenId);\n        // add new item to items mapping\n        items[itemCount] = Item (\n            itemCount,\n            _nft,\n            _tokenId,\n            _price,\n            payable(msg.sender),\n            false\n        );\n        // emit Offered event\n        emit Offered(\n            itemCount,\n            address(_nft),\n            _tokenId,\n            _price,\n            msg.sender\n        );\n    }\n\n    function purchaseItem(uint _itemId) external payable nonReentrant {\n        uint _totalPrice = getTotalPrice(_itemId);\n        Item storage item = items[_itemId];\n        require(_itemId > 0 && _itemId <= itemCount, \"item doesn't exist\");\n        require(msg.value >= _totalPrice, \"not enough ether to cover item price and market fee\");\n        require(!item.sold, \"item already sold\");\n        // pay seller and feeAccount\n        item.seller.transfer(item.price);\n        feeAccount.transfer(_totalPrice - item.price);\n        // update item to sold\n        item.sold = true;\n        // transfer nft to buyer\n        item.nft.transferFrom(address(this), msg.sender, item.tokenId);\n        // emit Bought event\n        emit Bought(\n            _itemId,\n            address(item.nft),\n            item.tokenId,\n            item.price,\n            item.seller,\n            msg.sender\n        );\n    }\n\n    function withdrawNft(uint _itemId) external nonReentrant {\n        Item storage item = items[_itemId];\n        require(msg.sender == item.seller, \"Not owner\");\n        require(!item.sold, \"item already sold\");\n        item.sold = true;\n        item.nft.transferFrom(address(this), msg.sender, item.tokenId);\n        emit WithdrawNft(\n            _itemId,\n            address(item.nft),\n            item.tokenId,\n            msg.sender\n        );\n    }\n\n    function getTotalPrice(uint _itemId) view public returns(uint){\n        return((items[_itemId].price*(100 + feePercent))/100);\n    }\n}",
  "sourcePath": "/Users/xuanhai/www/blockchain/nft_marketplace/contracts/Marketplace.sol",
  "compiler": {
    "name": "solc",
    "version": "0.8.4+commit.c7e474f2.Emscripten.clang"
  },
  "schemaVersion": "3.4.11",
  "updatedAt": "2023-05-21T14:09:00.018Z",
  "networkType": "ethereum",
  "devdoc": {
    "kind": "dev",
    "methods": {},
    "version": 1
  },
  "userdoc": {
    "kind": "user",
    "methods": {},
    "version": 1
  }
}